{
  "_format": "hh-sol-artifact-1",
  "contractName": "ChefToken",
  "sourceName": "contracts/CFT.sol",
  "abi": [
    {
      "inputs": [
        {
          "components": [
            {
              "internalType": "string",
              "name": "name",
              "type": "string"
            },
            {
              "internalType": "string",
              "name": "symbol",
              "type": "string"
            },
            {
              "internalType": "string",
              "name": "newUri",
              "type": "string"
            },
            {
              "internalType": "address",
              "name": "initialOwner",
              "type": "address"
            }
          ],
          "internalType": "struct ChefToken.Collection",
          "name": "params",
          "type": "tuple"
        }
      ],
      "stateMutability": "nonpayable",
      "type": "constructor"
    },
    {
      "inputs": [
        {
          "internalType": "address",
          "name": "sender",
          "type": "address"
        },
        {
          "internalType": "uint256",
          "name": "balance",
          "type": "uint256"
        },
        {
          "internalType": "uint256",
          "name": "needed",
          "type": "uint256"
        },
        {
          "internalType": "uint256",
          "name": "tokenId",
          "type": "uint256"
        }
      ],
      "name": "ERC1155InsufficientBalance",
      "type": "error"
    },
    {
      "inputs": [
        {
          "internalType": "address",
          "name": "approver",
          "type": "address"
        }
      ],
      "name": "ERC1155InvalidApprover",
      "type": "error"
    },
    {
      "inputs": [
        {
          "internalType": "uint256",
          "name": "idsLength",
          "type": "uint256"
        },
        {
          "internalType": "uint256",
          "name": "valuesLength",
          "type": "uint256"
        }
      ],
      "name": "ERC1155InvalidArrayLength",
      "type": "error"
    },
    {
      "inputs": [
        {
          "internalType": "address",
          "name": "operator",
          "type": "address"
        }
      ],
      "name": "ERC1155InvalidOperator",
      "type": "error"
    },
    {
      "inputs": [
        {
          "internalType": "address",
          "name": "receiver",
          "type": "address"
        }
      ],
      "name": "ERC1155InvalidReceiver",
      "type": "error"
    },
    {
      "inputs": [
        {
          "internalType": "address",
          "name": "sender",
          "type": "address"
        }
      ],
      "name": "ERC1155InvalidSender",
      "type": "error"
    },
    {
      "inputs": [
        {
          "internalType": "address",
          "name": "operator",
          "type": "address"
        },
        {
          "internalType": "address",
          "name": "owner",
          "type": "address"
        }
      ],
      "name": "ERC1155MissingApprovalForAll",
      "type": "error"
    },
    {
      "inputs": [],
      "name": "EnforcedPause",
      "type": "error"
    },
    {
      "inputs": [],
      "name": "ExpectedPause",
      "type": "error"
    },
    {
      "inputs": [
        {
          "internalType": "address",
          "name": "owner",
          "type": "address"
        }
      ],
      "name": "OwnableInvalidOwner",
      "type": "error"
    },
    {
      "inputs": [
        {
          "internalType": "address",
          "name": "account",
          "type": "address"
        }
      ],
      "name": "OwnableUnauthorizedAccount",
      "type": "error"
    },
    {
      "anonymous": false,
      "inputs": [
        {
          "indexed": true,
          "internalType": "address",
          "name": "account",
          "type": "address"
        },
        {
          "indexed": true,
          "internalType": "address",
          "name": "operator",
          "type": "address"
        },
        {
          "indexed": false,
          "internalType": "bool",
          "name": "approved",
          "type": "bool"
        }
      ],
      "name": "ApprovalForAll",
      "type": "event"
    },
    {
      "anonymous": false,
      "inputs": [
        {
          "indexed": true,
          "internalType": "address",
          "name": "previousOwner",
          "type": "address"
        },
        {
          "indexed": true,
          "internalType": "address",
          "name": "newOwner",
          "type": "address"
        }
      ],
      "name": "OwnershipTransferred",
      "type": "event"
    },
    {
      "anonymous": false,
      "inputs": [
        {
          "indexed": false,
          "internalType": "address",
          "name": "account",
          "type": "address"
        }
      ],
      "name": "Paused",
      "type": "event"
    },
    {
      "anonymous": false,
      "inputs": [
        {
          "indexed": true,
          "internalType": "address",
          "name": "operator",
          "type": "address"
        },
        {
          "indexed": true,
          "internalType": "address",
          "name": "from",
          "type": "address"
        },
        {
          "indexed": true,
          "internalType": "address",
          "name": "to",
          "type": "address"
        },
        {
          "indexed": false,
          "internalType": "uint256[]",
          "name": "ids",
          "type": "uint256[]"
        },
        {
          "indexed": false,
          "internalType": "uint256[]",
          "name": "values",
          "type": "uint256[]"
        }
      ],
      "name": "TransferBatch",
      "type": "event"
    },
    {
      "anonymous": false,
      "inputs": [
        {
          "indexed": true,
          "internalType": "address",
          "name": "operator",
          "type": "address"
        },
        {
          "indexed": true,
          "internalType": "address",
          "name": "from",
          "type": "address"
        },
        {
          "indexed": true,
          "internalType": "address",
          "name": "to",
          "type": "address"
        },
        {
          "indexed": false,
          "internalType": "uint256",
          "name": "id",
          "type": "uint256"
        },
        {
          "indexed": false,
          "internalType": "uint256",
          "name": "value",
          "type": "uint256"
        }
      ],
      "name": "TransferSingle",
      "type": "event"
    },
    {
      "anonymous": false,
      "inputs": [
        {
          "indexed": false,
          "internalType": "string",
          "name": "value",
          "type": "string"
        },
        {
          "indexed": true,
          "internalType": "uint256",
          "name": "id",
          "type": "uint256"
        }
      ],
      "name": "URI",
      "type": "event"
    },
    {
      "anonymous": false,
      "inputs": [
        {
          "indexed": false,
          "internalType": "address",
          "name": "account",
          "type": "address"
        }
      ],
      "name": "Unpaused",
      "type": "event"
    },
    {
      "inputs": [
        {
          "internalType": "address",
          "name": "marketplaceAddress",
          "type": "address"
        },
        {
          "internalType": "bool",
          "name": "approved",
          "type": "bool"
        }
      ],
      "name": "approveMarketplace",
      "outputs": [],
      "stateMutability": "nonpayable",
      "type": "function"
    },
    {
      "inputs": [
        {
          "internalType": "address",
          "name": "account",
          "type": "address"
        },
        {
          "internalType": "uint256",
          "name": "id",
          "type": "uint256"
        }
      ],
      "name": "balanceOf",
      "outputs": [
        {
          "internalType": "uint256",
          "name": "",
          "type": "uint256"
        }
      ],
      "stateMutability": "view",
      "type": "function"
    },
    {
      "inputs": [
        {
          "internalType": "address[]",
          "name": "accounts",
          "type": "address[]"
        },
        {
          "internalType": "uint256[]",
          "name": "ids",
          "type": "uint256[]"
        }
      ],
      "name": "balanceOfBatch",
      "outputs": [
        {
          "internalType": "uint256[]",
          "name": "",
          "type": "uint256[]"
        }
      ],
      "stateMutability": "view",
      "type": "function"
    },
    {
      "inputs": [
        {
          "internalType": "address",
          "name": "account",
          "type": "address"
        },
        {
          "internalType": "uint256",
          "name": "id",
          "type": "uint256"
        },
        {
          "internalType": "uint256",
          "name": "value",
          "type": "uint256"
        }
      ],
      "name": "burn",
      "outputs": [],
      "stateMutability": "nonpayable",
      "type": "function"
    },
    {
      "inputs": [
        {
          "internalType": "address",
          "name": "account",
          "type": "address"
        },
        {
          "internalType": "uint256[]",
          "name": "ids",
          "type": "uint256[]"
        },
        {
          "internalType": "uint256[]",
          "name": "values",
          "type": "uint256[]"
        }
      ],
      "name": "burnBatch",
      "outputs": [],
      "stateMutability": "nonpayable",
      "type": "function"
    },
    {
      "inputs": [
        {
          "internalType": "uint256",
          "name": "id",
          "type": "uint256"
        }
      ],
      "name": "exists",
      "outputs": [
        {
          "internalType": "bool",
          "name": "",
          "type": "bool"
        }
      ],
      "stateMutability": "view",
      "type": "function"
    },
    {
      "inputs": [
        {
          "internalType": "address",
          "name": "account",
          "type": "address"
        },
        {
          "internalType": "address",
          "name": "operator",
          "type": "address"
        }
      ],
      "name": "isApprovedForAll",
      "outputs": [
        {
          "internalType": "bool",
          "name": "",
          "type": "bool"
        }
      ],
      "stateMutability": "view",
      "type": "function"
    },
    {
      "inputs": [
        {
          "internalType": "address",
          "name": "account",
          "type": "address"
        },
        {
          "internalType": "uint256",
          "name": "id",
          "type": "uint256"
        },
        {
          "internalType": "uint256",
          "name": "amount",
          "type": "uint256"
        },
        {
          "internalType": "string",
          "name": "tokenURI",
          "type": "string"
        },
        {
          "internalType": "bytes",
          "name": "data",
          "type": "bytes"
        }
      ],
      "name": "mint",
      "outputs": [],
      "stateMutability": "nonpayable",
      "type": "function"
    },
    {
      "inputs": [
        {
          "internalType": "address",
          "name": "to",
          "type": "address"
        },
        {
          "internalType": "uint256[]",
          "name": "ids",
          "type": "uint256[]"
        },
        {
          "internalType": "uint256[]",
          "name": "amounts",
          "type": "uint256[]"
        },
        {
          "internalType": "string[]",
          "name": "tokenURIs",
          "type": "string[]"
        },
        {
          "internalType": "bytes",
          "name": "data",
          "type": "bytes"
        }
      ],
      "name": "mintBatch",
      "outputs": [],
      "stateMutability": "nonpayable",
      "type": "function"
    },
    {
      "inputs": [],
      "name": "name",
      "outputs": [
        {
          "internalType": "string",
          "name": "",
          "type": "string"
        }
      ],
      "stateMutability": "view",
      "type": "function"
    },
    {
      "inputs": [],
      "name": "owner",
      "outputs": [
        {
          "internalType": "address",
          "name": "",
          "type": "address"
        }
      ],
      "stateMutability": "view",
      "type": "function"
    },
    {
      "inputs": [],
      "name": "pause",
      "outputs": [],
      "stateMutability": "nonpayable",
      "type": "function"
    },
    {
      "inputs": [],
      "name": "paused",
      "outputs": [
        {
          "internalType": "bool",
          "name": "",
          "type": "bool"
        }
      ],
      "stateMutability": "view",
      "type": "function"
    },
    {
      "inputs": [],
      "name": "renounceOwnership",
      "outputs": [],
      "stateMutability": "nonpayable",
      "type": "function"
    },
    {
      "inputs": [
        {
          "internalType": "address",
          "name": "from",
          "type": "address"
        },
        {
          "internalType": "address",
          "name": "to",
          "type": "address"
        },
        {
          "internalType": "uint256[]",
          "name": "ids",
          "type": "uint256[]"
        },
        {
          "internalType": "uint256[]",
          "name": "values",
          "type": "uint256[]"
        },
        {
          "internalType": "bytes",
          "name": "data",
          "type": "bytes"
        }
      ],
      "name": "safeBatchTransferFrom",
      "outputs": [],
      "stateMutability": "nonpayable",
      "type": "function"
    },
    {
      "inputs": [
        {
          "internalType": "address",
          "name": "from",
          "type": "address"
        },
        {
          "internalType": "address",
          "name": "to",
          "type": "address"
        },
        {
          "internalType": "uint256",
          "name": "id",
          "type": "uint256"
        },
        {
          "internalType": "uint256",
          "name": "value",
          "type": "uint256"
        },
        {
          "internalType": "bytes",
          "name": "data",
          "type": "bytes"
        }
      ],
      "name": "safeTransferFrom",
      "outputs": [],
      "stateMutability": "nonpayable",
      "type": "function"
    },
    {
      "inputs": [
        {
          "internalType": "address",
          "name": "operator",
          "type": "address"
        },
        {
          "internalType": "bool",
          "name": "approved",
          "type": "bool"
        }
      ],
      "name": "setApprovalForAll",
      "outputs": [],
      "stateMutability": "nonpayable",
      "type": "function"
    },
    {
      "inputs": [
        {
          "internalType": "string",
          "name": "newuri",
          "type": "string"
        }
      ],
      "name": "setURI",
      "outputs": [],
      "stateMutability": "nonpayable",
      "type": "function"
    },
    {
      "inputs": [
        {
          "internalType": "bytes4",
          "name": "interfaceId",
          "type": "bytes4"
        }
      ],
      "name": "supportsInterface",
      "outputs": [
        {
          "internalType": "bool",
          "name": "",
          "type": "bool"
        }
      ],
      "stateMutability": "view",
      "type": "function"
    },
    {
      "inputs": [],
      "name": "symbol",
      "outputs": [
        {
          "internalType": "string",
          "name": "",
          "type": "string"
        }
      ],
      "stateMutability": "view",
      "type": "function"
    },
    {
      "inputs": [],
      "name": "totalSupply",
      "outputs": [
        {
          "internalType": "uint256",
          "name": "",
          "type": "uint256"
        }
      ],
      "stateMutability": "view",
      "type": "function"
    },
    {
      "inputs": [
        {
          "internalType": "uint256",
          "name": "id",
          "type": "uint256"
        }
      ],
      "name": "totalSupply",
      "outputs": [
        {
          "internalType": "uint256",
          "name": "",
          "type": "uint256"
        }
      ],
      "stateMutability": "view",
      "type": "function"
    },
    {
      "inputs": [
        {
          "internalType": "address",
          "name": "newOwner",
          "type": "address"
        }
      ],
      "name": "transferOwnership",
      "outputs": [],
      "stateMutability": "nonpayable",
      "type": "function"
    },
    {
      "inputs": [],
      "name": "unpause",
      "outputs": [],
      "stateMutability": "nonpayable",
      "type": "function"
    },
    {
      "inputs": [
        {
          "internalType": "uint256",
          "name": "tokenId",
          "type": "uint256"
        }
      ],
      "name": "uri",
      "outputs": [
        {
          "internalType": "string",
          "name": "",
          "type": "string"
        }
      ],
      "stateMutability": "view",
      "type": "function"
    },
    {
      "inputs": [],
      "name": "withdraw",
      "outputs": [],
      "stateMutability": "nonpayable",
      "type": "function"
    }
  ],
  "bytecode": "0x60806040523480156200001157600080fd5b506040516200232738038062002327833981016040819052620000349162000235565b606081015160408201516200004981620000d0565b506001600160a01b0381166200007957604051631e4fbdf760e01b81526000600482015260240160405180910390fd5b6200008481620000e2565b506003805460ff60a01b191690556040810151620000a290620000d0565b8051600690620000b39082620003ab565b506020810151600790620000c89082620003ab565b505062000477565b6002620000de8282620003ab565b5050565b600380546001600160a01b038381166001600160a01b0319831681179093556040519116919082907f8be0079c531659141344cd1fd0a4f28419497f9722a3daafe3b4186f6b6457e090600090a35050565b634e487b7160e01b600052604160045260246000fd5b604051608081016001600160401b03811182821017156200016f576200016f62000134565b60405290565b604051601f8201601f191681016001600160401b0381118282101715620001a057620001a062000134565b604052919050565b600082601f830112620001ba57600080fd5b81516001600160401b03811115620001d657620001d662000134565b6020620001ec601f8301601f1916820162000175565b82815285828487010111156200020157600080fd5b60005b838110156200022157858101830151828201840152820162000204565b506000928101909101919091529392505050565b6000602082840312156200024857600080fd5b81516001600160401b03808211156200026057600080fd5b90830190608082860312156200027557600080fd5b6200027f6200014a565b8251828111156200028f57600080fd5b6200029d87828601620001a8565b825250602083015182811115620002b357600080fd5b620002c187828601620001a8565b602083015250604083015182811115620002da57600080fd5b620002e887828601620001a8565b60408301525060609290920151916001600160a01b03831683146200030c57600080fd5b6060810192909252509392505050565b600181811c908216806200033157607f821691505b6020821081036200035257634e487b7160e01b600052602260045260246000fd5b50919050565b601f821115620003a657600081815260208120601f850160051c81016020861015620003815750805b601f850160051c820191505b81811015620003a2578281556001016200038d565b5050505b505050565b81516001600160401b03811115620003c757620003c762000134565b620003df81620003d884546200031c565b8462000358565b602080601f831160018114620004175760008415620003fe5750858301515b600019600386901b1c1916600185901b178555620003a2565b600085815260208120601f198616915b82811015620004485788860151825594840194600190910190840162000427565b5085821015620004675787850151600019600388901b60f8161c191681555b5050505050600190811b01905550565b611ea080620004876000396000f3fe608060405234801561001057600080fd5b506004361061018d5760003560e01c8063715018a6116100de578063b9571e8411610097578063e985e9c511610071578063e985e9c514610349578063f242432a1461035c578063f2fde38b1461036f578063f5298aca1461038257600080fd5b8063b9571e8414610303578063bb4dc10a14610316578063bd85b0391461032957600080fd5b8063715018a6146102aa5780638456cb59146102b25780638da5cb5b146102ba57806395d89b41146102d5578063a22cb465146102dd578063a4b645eb146102f057600080fd5b80632eb2c2d61161014b5780634e1273f4116101255780634e1273f4146102435780634f558e79146102635780635c975abb146102855780636b20c4541461029757600080fd5b80632eb2c2d6146102205780633ccfd60b146102335780633f4ba83a1461023b57600080fd5b8062fdd58e1461019257806301ffc9a7146101b857806302fe5305146101db57806306fdde03146101f05780630e89341c1461020557806318160ddd14610218575b600080fd5b6101a56101a03660046114c2565b610395565b6040519081526020015b60405180910390f35b6101cb6101c6366004611502565b6103bd565b60405190151581526020016101af565b6101ee6101e93660046115dd565b61040d565b005b6101f8610421565b6040516101af9190611660565b6101f8610213366004611673565b6104af565b6005546101a5565b6101ee61022e36600461171b565b610551565b6101ee6105bd565b6101ee610648565b6102566102513660046117c5565b61065a565b6040516101af91906118c0565b6101cb610271366004611673565b600090815260046020526040902054151590565b600354600160a01b900460ff166101cb565b6101ee6102a53660046118d3565b61072f565b6101ee610793565b6101ee6107a5565b6003546040516001600160a01b0390911681526020016101af565b6101f86107b5565b6101ee6102eb366004611947565b6107c2565b6101ee6102fe366004611983565b6107cd565b6101ee6103113660046119db565b610842565b6101ee610324366004611947565b610902565b6101a5610337366004611673565b60009081526004602052604090205490565b6101cb610357366004611afe565b61090c565b6101ee61036a366004611b31565b61093a565b6101ee61037d366004611b96565b610999565b6101ee610390366004611bb1565b6109d4565b6000818152602081815260408083206001600160a01b03861684529091529020545b92915050565b60006001600160e01b03198216636cdb3d1360e11b14806103ee57506001600160e01b031982166303a24d0760e21b145b806103b757506301ffc9a760e01b6001600160e01b03198316146103b7565b610415610a0a565b61041e81610a37565b50565b6006805461042e90611be4565b80601f016020809104026020016040519081016040528092919081815260200182805461045a90611be4565b80156104a75780601f1061047c576101008083540402835291602001916104a7565b820191906000526020600020905b81548152906001019060200180831161048a57829003601f168201915b505050505081565b60008181526008602052604090208054606091906104cc90611be4565b80601f01602080910402602001604051908101604052809291908181526020018280546104f890611be4565b80156105455780601f1061051a57610100808354040283529160200191610545565b820191906000526020600020905b81548152906001019060200180831161052857829003601f168201915b50505050509050919050565b336001600160a01b03861681148015906105725750610570868261090c565b155b156105a85760405163711bec9160e11b81526001600160a01b038083166004830152871660248201526044015b60405180910390fd5b6105b58686868686610a43565b505050505050565b6105c5610a0a565b478061060a5760405162461bcd60e51b81526020600482015260146024820152734e6f2066756e647320746f20776974686472617760601b604482015260640161059f565b6003546040516001600160a01b039091169082156108fc029083906000818181858888f19350505050158015610644573d6000803e3d6000fd5b5050565b610650610a0a565b610658610aa3565b565b6060815183511461068b5781518351604051635b05999160e01b81526004810192909252602482015260440161059f565b6000835167ffffffffffffffff8111156106a7576106a7611526565b6040519080825280602002602001820160405280156106d0578160200160208202803683370190505b50905060005b8451811015610727576020808202860101516106fa90602080840287010151610395565b82828151811061070c5761070c611c1e565b602090810291909101015261072081611c4a565b90506106d6565b509392505050565b6001600160a01b038316331480159061074f575061074d833361090c565b155b1561078357335b60405163711bec9160e11b81526001600160a01b039182166004820152908416602482015260440161059f565b61078e838383610af8565b505050565b61079b610a0a565b6106586000610b3e565b6107ad610a0a565b610658610b90565b6007805461042e90611be4565b610644338383610bd3565b6107d5610a0a565b600083116108255760405162461bcd60e51b815260206004820181905260248201527f416d6f756e74206d7573742062652067726561746572207468616e207a65726f604482015260640161059f565b61083185858584610c69565b61083b8483610cc6565b5050505050565b61084a610a0a565b8251845114801561085c575081518451145b61089c5760405162461bcd60e51b81526020600482015260116024820152704d69736d6174636865642061727261797360781b604482015260640161059f565b6108a885858584610d2f565b60005b84518110156105b5576108f08582815181106108c9576108c9611c1e565b60200260200101518483815181106108e3576108e3611c1e565b6020026020010151610cc6565b806108fa81611c4a565b9150506108ab565b61064482826107c2565b6001600160a01b03918216600090815260016020908152604080832093909416825291909152205460ff1690565b336001600160a01b038616811480159061095b5750610959868261090c565b155b1561098c5760405163711bec9160e11b81526001600160a01b0380831660048301528716602482015260440161059f565b6105b58686868686610d6d565b6109a1610a0a565b6001600160a01b0381166109cb57604051631e4fbdf760e01b81526000600482015260240161059f565b61041e81610b3e565b6001600160a01b03831633148015906109f457506109f2833361090c565b155b156109ff5733610756565b61078e838383610dfb565b6003546001600160a01b031633146106585760405163118cdaa760e01b815233600482015260240161059f565b60026106448282611ca9565b6001600160a01b038416610a6d57604051632bfa23e760e11b81526000600482015260240161059f565b6001600160a01b038516610a9657604051626a0d4560e21b81526000600482015260240161059f565b61083b8585858585610e5f565b610aab610eb2565b6003805460ff60a01b191690557f5db9ee0a495bf2e6ff9c91a7834c1ba4fdd244a5e8aa4e537bd38aeae4b073aa335b6040516001600160a01b03909116815260200160405180910390a1565b6001600160a01b038316610b2157604051626a0d4560e21b81526000600482015260240161059f565b61078e836000848460405180602001604052806000815250610e5f565b600380546001600160a01b038381166001600160a01b0319831681179093556040519116919082907f8be0079c531659141344cd1fd0a4f28419497f9722a3daafe3b4186f6b6457e090600090a35050565b610b98610edc565b6003805460ff60a01b1916600160a01b1790557f62e78cea01bee320cd4e420270b5ea74000d11b0c9f74754ebdbfc544b05a258610adb3390565b6001600160a01b038216610bfc5760405162ced3e160e81b81526000600482015260240161059f565b6001600160a01b03838116600081815260016020908152604080832094871680845294825291829020805460ff191686151590811790915591519182527f17307eab39ab6107e8899845ad3d59bd9653f200f220920489ca2b5937696c31910160405180910390a3505050565b6001600160a01b038416610c9357604051632bfa23e760e11b81526000600482015260240161059f565b604080516001808252602082018690528183019081526060820185905260808201909252906105b5600087848487610e5f565b6000815111610d175760405162461bcd60e51b815260206004820152601b60248201527f546f6b656e20555249206d757374206e6f7420626520656d7074790000000000604482015260640161059f565b600082815260086020526040902061078e8282611ca9565b6001600160a01b038416610d5957604051632bfa23e760e11b81526000600482015260240161059f565b610d67600085858585610e5f565b50505050565b6001600160a01b038416610d9757604051632bfa23e760e11b81526000600482015260240161059f565b6001600160a01b038516610dc057604051626a0d4560e21b81526000600482015260240161059f565b60408051600180825260208201869052818301908152606082018590526080820190925290610df28787848487610e5f565b50505050505050565b6001600160a01b038316610e2457604051626a0d4560e21b81526000600482015260240161059f565b604080516001808252602082018590528183019081526060820184905260a0820190925260006080820181815291929161083b918791859085905b610e6b85858585610f07565b6001600160a01b0384161561083b5782513390600103610ea45760208481015190840151610e9d838989858589610f13565b50506105b5565b6105b5818787878787611037565b600354600160a01b900460ff1661065857604051638dfc202b60e01b815260040160405180910390fd5b600354600160a01b900460ff16156106585760405163d93c066560e01b815260040160405180910390fd5b610d6784848484611120565b6001600160a01b0384163b156105b55760405163f23a6e6160e01b81526001600160a01b0385169063f23a6e6190610f579089908990889088908890600401611d69565b6020604051808303816000875af1925050508015610f92575060408051601f3d908101601f19168201909252610f8f91810190611dae565b60015b610ffb573d808015610fc0576040519150601f19603f3d011682016040523d82523d6000602084013e610fc5565b606091505b508051600003610ff357604051632bfa23e760e11b81526001600160a01b038616600482015260240161059f565b805181602001fd5b6001600160e01b0319811663f23a6e6160e01b14610df257604051632bfa23e760e11b81526001600160a01b038616600482015260240161059f565b6001600160a01b0384163b156105b55760405163bc197c8160e01b81526001600160a01b0385169063bc197c819061107b9089908990889088908890600401611dcb565b6020604051808303816000875af19250505080156110b6575060408051601f3d908101601f191682019092526110b391810190611dae565b60015b6110e4573d808015610fc0576040519150601f19603f3d011682016040523d82523d6000602084013e610fc5565b6001600160e01b0319811663bc197c8160e01b14610df257604051632bfa23e760e11b81526001600160a01b038616600482015260240161059f565b61112c8484848461127a565b6001600160a01b0384166111df576000805b83518110156111c557600083828151811061115b5761115b611c1e565b60200260200101519050806004600087858151811061117c5761117c611c1e565b6020026020010151815260200190815260200160002060008282546111a19190611e29565b909155506111b190508184611e29565b925050806111be90611c4a565b905061113e565b5080600560008282546111d89190611e29565b9091555050505b6001600160a01b038316610d67576000805b835181101561126957600083828151811061120e5761120e611c1e565b60200260200101519050806004600087858151811061122f5761122f611c1e565b60200260200101518152602001908152602001600020600082825403925050819055508083019250508061126290611c4a565b90506111f1565b506005805491909103905550505050565b611282610edc565b610d678484848480518251146112b85781518151604051635b05999160e01b81526004810192909252602482015260440161059f565b3360005b83518110156113c7576020818102858101820151908501909101516001600160a01b0388161561136f576000828152602081815260408083206001600160a01b038c16845290915290205481811015611348576040516303dee4c560e01b81526001600160a01b038a16600482015260248101829052604481018390526064810184905260840161059f565b6000838152602081815260408083206001600160a01b038d16845290915290209082900390555b6001600160a01b038716156113b4576000828152602081815260408083206001600160a01b038b168452909152812080548392906113ae908490611e29565b90915550505b5050806113c090611c4a565b90506112bc565b5082516001036114485760208301516000906020840151909150856001600160a01b0316876001600160a01b0316846001600160a01b03167fc3d58168c5ae7397731d063d5bbf3d657854427343f4c083240f7aacaa2d0f628585604051611439929190918252602082015260400190565b60405180910390a4505061083b565b836001600160a01b0316856001600160a01b0316826001600160a01b03167f4a39dc06d4c0dbc64b70af90fd698a233a518aa5d07e595d983b8c0526c8f7fb8686604051611497929190611e3c565b60405180910390a45050505050565b80356001600160a01b03811681146114bd57600080fd5b919050565b600080604083850312156114d557600080fd5b6114de836114a6565b946020939093013593505050565b6001600160e01b03198116811461041e57600080fd5b60006020828403121561151457600080fd5b813561151f816114ec565b9392505050565b634e487b7160e01b600052604160045260246000fd5b604051601f8201601f1916810167ffffffffffffffff8111828210171561156557611565611526565b604052919050565b600082601f83011261157e57600080fd5b813567ffffffffffffffff81111561159857611598611526565b6115ab601f8201601f191660200161153c565b8181528460208386010111156115c057600080fd5b816020850160208301376000918101602001919091529392505050565b6000602082840312156115ef57600080fd5b813567ffffffffffffffff81111561160657600080fd5b6116128482850161156d565b949350505050565b6000815180845260005b8181101561164057602081850181015186830182015201611624565b506000602082860101526020601f19601f83011685010191505092915050565b60208152600061151f602083018461161a565b60006020828403121561168557600080fd5b5035919050565b600067ffffffffffffffff8211156116a6576116a6611526565b5060051b60200190565b600082601f8301126116c157600080fd5b813560206116d66116d18361168c565b61153c565b82815260059290921b840181019181810190868411156116f557600080fd5b8286015b8481101561171057803583529183019183016116f9565b509695505050505050565b600080600080600060a0868803121561173357600080fd5b61173c866114a6565b945061174a602087016114a6565b9350604086013567ffffffffffffffff8082111561176757600080fd5b61177389838a016116b0565b9450606088013591508082111561178957600080fd5b61179589838a016116b0565b935060808801359150808211156117ab57600080fd5b506117b88882890161156d565b9150509295509295909350565b600080604083850312156117d857600080fd5b823567ffffffffffffffff808211156117f057600080fd5b818501915085601f83011261180457600080fd5b813560206118146116d18361168c565b82815260059290921b8401810191818101908984111561183357600080fd5b948201945b8386101561185857611849866114a6565b82529482019490820190611838565b9650508601359250508082111561186e57600080fd5b5061187b858286016116b0565b9150509250929050565b600081518084526020808501945080840160005b838110156118b557815187529582019590820190600101611899565b509495945050505050565b60208152600061151f6020830184611885565b6000806000606084860312156118e857600080fd5b6118f1846114a6565b9250602084013567ffffffffffffffff8082111561190e57600080fd5b61191a878388016116b0565b9350604086013591508082111561193057600080fd5b5061193d868287016116b0565b9150509250925092565b6000806040838503121561195a57600080fd5b611963836114a6565b91506020830135801515811461197857600080fd5b809150509250929050565b600080600080600060a0868803121561199b57600080fd5b6119a4866114a6565b94506020860135935060408601359250606086013567ffffffffffffffff808211156119cf57600080fd5b61179589838a0161156d565b600080600080600060a086880312156119f357600080fd5b6119fc866114a6565b945060208087013567ffffffffffffffff80821115611a1a57600080fd5b611a268a838b016116b0565b96506040890135915080821115611a3c57600080fd5b611a488a838b016116b0565b95506060890135915080821115611a5e57600080fd5b818901915089601f830112611a7257600080fd5b8135611a806116d18261168c565b81815260059190911b8301840190848101908c831115611a9f57600080fd5b8585015b83811015611ad757803585811115611abb5760008081fd5b611ac98f89838a010161156d565b845250918601918601611aa3565b50965050506080890135925080831115611af057600080fd5b50506117b88882890161156d565b60008060408385031215611b1157600080fd5b611b1a836114a6565b9150611b28602084016114a6565b90509250929050565b600080600080600060a08688031215611b4957600080fd5b611b52866114a6565b9450611b60602087016114a6565b93506040860135925060608601359150608086013567ffffffffffffffff811115611b8a57600080fd5b6117b88882890161156d565b600060208284031215611ba857600080fd5b61151f826114a6565b600080600060608486031215611bc657600080fd5b611bcf846114a6565b95602085013595506040909401359392505050565b600181811c90821680611bf857607f821691505b602082108103611c1857634e487b7160e01b600052602260045260246000fd5b50919050565b634e487b7160e01b600052603260045260246000fd5b634e487b7160e01b600052601160045260246000fd5b600060018201611c5c57611c5c611c34565b5060010190565b601f82111561078e57600081815260208120601f850160051c81016020861015611c8a5750805b601f850160051c820191505b818110156105b557828155600101611c96565b815167ffffffffffffffff811115611cc357611cc3611526565b611cd781611cd18454611be4565b84611c63565b602080601f831160018114611d0c5760008415611cf45750858301515b600019600386901b1c1916600185901b1785556105b5565b600085815260208120601f198616915b82811015611d3b57888601518255948401946001909101908401611d1c565b5085821015611d595787850151600019600388901b60f8161c191681555b5050505050600190811b01905550565b6001600160a01b03868116825285166020820152604081018490526060810183905260a060808201819052600090611da39083018461161a565b979650505050505050565b600060208284031215611dc057600080fd5b815161151f816114ec565b6001600160a01b0386811682528516602082015260a060408201819052600090611df790830186611885565b8281036060840152611e098186611885565b90508281036080840152611e1d818561161a565b98975050505050505050565b808201808211156103b7576103b7611c34565b604081526000611e4f6040830185611885565b8281036020840152611e618185611885565b9594505050505056fea26469706673582212207271a6c10b7e97fc4ee3845ea0921e0f618b36cea4260401d7870926b385e55064736f6c63430008140033",
  "linkReferences": {},
  "deployedLinkReferences": {}
}