{
  "_format": "hh-sol-artifact-1",
  "contractName": "Marketplace",
  "sourceName": "contracts/Market.sol",
  "abi": [
    {
      "anonymous": false,
      "inputs": [
        {
          "indexed": true,
          "internalType": "address",
          "name": "seller",
          "type": "address"
        },
        {
          "indexed": true,
          "internalType": "address",
          "name": "bidder",
          "type": "address"
        },
        {
          "indexed": false,
          "internalType": "uint256",
          "name": "tokenId",
          "type": "uint256"
        },
        {
          "indexed": false,
          "internalType": "uint256",
          "name": "amount",
          "type": "uint256"
        }
      ],
      "name": "BidAccepted",
      "type": "event"
    },
    {
      "anonymous": false,
      "inputs": [
        {
          "indexed": true,
          "internalType": "address",
          "name": "bidder",
          "type": "address"
        },
        {
          "indexed": false,
          "internalType": "uint256",
          "name": "tokenId",
          "type": "uint256"
        }
      ],
      "name": "BidCanceled",
      "type": "event"
    },
    {
      "anonymous": false,
      "inputs": [
        {
          "indexed": true,
          "internalType": "address",
          "name": "bidder",
          "type": "address"
        },
        {
          "indexed": false,
          "internalType": "uint256",
          "name": "tokenId",
          "type": "uint256"
        },
        {
          "indexed": false,
          "internalType": "uint256",
          "name": "amount",
          "type": "uint256"
        },
        {
          "indexed": false,
          "internalType": "uint256",
          "name": "expirationTime",
          "type": "uint256"
        }
      ],
      "name": "BidPlaced",
      "type": "event"
    },
    {
      "anonymous": false,
      "inputs": [
        {
          "indexed": true,
          "internalType": "address",
          "name": "seller",
          "type": "address"
        },
        {
          "indexed": true,
          "internalType": "address",
          "name": "nftContract",
          "type": "address"
        },
        {
          "indexed": false,
          "internalType": "uint256",
          "name": "tokenId",
          "type": "uint256"
        },
        {
          "indexed": false,
          "internalType": "uint256",
          "name": "price",
          "type": "uint256"
        },
        {
          "indexed": false,
          "internalType": "uint256",
          "name": "expirationTime",
          "type": "uint256"
        }
      ],
      "name": "ItemListed",
      "type": "event"
    },
    {
      "anonymous": false,
      "inputs": [
        {
          "indexed": true,
          "internalType": "address",
          "name": "buyer",
          "type": "address"
        },
        {
          "indexed": true,
          "internalType": "address",
          "name": "nftContract",
          "type": "address"
        },
        {
          "indexed": false,
          "internalType": "uint256",
          "name": "tokenId",
          "type": "uint256"
        },
        {
          "indexed": false,
          "internalType": "uint256",
          "name": "price",
          "type": "uint256"
        }
      ],
      "name": "ItemSold",
      "type": "event"
    },
    {
      "anonymous": false,
      "inputs": [
        {
          "indexed": true,
          "internalType": "address",
          "name": "seller",
          "type": "address"
        },
        {
          "indexed": true,
          "internalType": "address",
          "name": "nftContract",
          "type": "address"
        },
        {
          "indexed": false,
          "internalType": "uint256",
          "name": "tokenId",
          "type": "uint256"
        }
      ],
      "name": "ListingCanceled",
      "type": "event"
    },
    {
      "inputs": [
        {
          "internalType": "uint256",
          "name": "tokenId",
          "type": "uint256"
        }
      ],
      "name": "acceptBid",
      "outputs": [],
      "stateMutability": "nonpayable",
      "type": "function"
    },
    {
      "inputs": [
        {
          "internalType": "uint256",
          "name": "",
          "type": "uint256"
        }
      ],
      "name": "bids",
      "outputs": [
        {
          "internalType": "address",
          "name": "bidder",
          "type": "address"
        },
        {
          "internalType": "uint256",
          "name": "amount",
          "type": "uint256"
        },
        {
          "internalType": "uint256",
          "name": "expirationTime",
          "type": "uint256"
        },
        {
          "internalType": "bool",
          "name": "active",
          "type": "bool"
        }
      ],
      "stateMutability": "view",
      "type": "function"
    },
    {
      "inputs": [
        {
          "internalType": "uint256",
          "name": "tokenId",
          "type": "uint256"
        }
      ],
      "name": "buyItem",
      "outputs": [],
      "stateMutability": "payable",
      "type": "function"
    },
    {
      "inputs": [
        {
          "internalType": "uint256",
          "name": "tokenId",
          "type": "uint256"
        }
      ],
      "name": "cancelBid",
      "outputs": [],
      "stateMutability": "nonpayable",
      "type": "function"
    },
    {
      "inputs": [
        {
          "internalType": "uint256",
          "name": "tokenId",
          "type": "uint256"
        }
      ],
      "name": "cancelListing",
      "outputs": [],
      "stateMutability": "nonpayable",
      "type": "function"
    },
    {
      "inputs": [
        {
          "internalType": "address",
          "name": "nftContract",
          "type": "address"
        },
        {
          "internalType": "uint256",
          "name": "tokenId",
          "type": "uint256"
        },
        {
          "internalType": "uint256",
          "name": "price",
          "type": "uint256"
        },
        {
          "internalType": "uint256",
          "name": "duration",
          "type": "uint256"
        }
      ],
      "name": "listItem",
      "outputs": [],
      "stateMutability": "nonpayable",
      "type": "function"
    },
    {
      "inputs": [
        {
          "internalType": "uint256",
          "name": "tokenId",
          "type": "uint256"
        },
        {
          "internalType": "uint256",
          "name": "duration",
          "type": "uint256"
        }
      ],
      "name": "placeBid",
      "outputs": [],
      "stateMutability": "payable",
      "type": "function"
    },
    {
      "inputs": [
        {
          "internalType": "uint256",
          "name": "",
          "type": "uint256"
        }
      ],
      "name": "sales",
      "outputs": [
        {
          "internalType": "address",
          "name": "seller",
          "type": "address"
        },
        {
          "internalType": "uint256",
          "name": "tokenId",
          "type": "uint256"
        },
        {
          "internalType": "uint256",
          "name": "price",
          "type": "uint256"
        },
        {
          "internalType": "address",
          "name": "nftContract",
          "type": "address"
        },
        {
          "internalType": "uint256",
          "name": "expirationTime",
          "type": "uint256"
        },
        {
          "internalType": "bool",
          "name": "isListed",
          "type": "bool"
        }
      ],
      "stateMutability": "view",
      "type": "function"
    }
  ],
  "bytecode": "0x608060405234801561001057600080fd5b50610f3a806100206000396000f3fe60806040526004361061007b5760003560e01c80639703ef351161004e5780639703ef3514610158578063b5f522f714610178578063bcb143ef14610216578063e7fb74c71461023657600080fd5b80632b1fd58a14610080578063305a67a8146100a25780634423c5f1146100c257806357c90de514610145575b600080fd5b34801561008c57600080fd5b506100a061009b366004610e0a565b610249565b005b3480156100ae57600080fd5b506100a06100bd366004610e0a565b6104d7565b3480156100ce57600080fd5b506101146100dd366004610e0a565b600160208190526000918252604090912080549181015460028201546003909201546001600160a01b039093169290919060ff1684565b604080516001600160a01b039095168552602085019390935291830152151560608201526080015b60405180910390f35b6100a0610153366004610e23565b6105e0565b34801561016457600080fd5b506100a0610173366004610e0a565b610845565b34801561018457600080fd5b506101d8610193366004610e0a565b6000602081905290815260409020805460018201546002830154600384015460048501546005909501546001600160a01b039485169593949293919092169160ff1686565b604080516001600160a01b039788168152602081019690965285019390935293166060830152608082019290925290151560a082015260c00161013c565b34801561022257600080fd5b506100a0610231366004610e45565b610978565b6100a0610244366004610e0a565b610bf1565b600081815260208190526040902061026082610d97565b600082815260016020526040902061027783610dd2565b600582015460ff166102c75760405162461bcd60e51b81526020600482015260146024820152734974656d206973206e6f7420666f722073616c6560601b60448201526064015b60405180910390fd5b81546001600160a01b031633146103195760405162461bcd60e51b81526020600482015260166024820152752cb7ba9030b932903737ba103a34329039b2b63632b960511b60448201526064016102be565b600381015460ff1661036d5760405162461bcd60e51b815260206004820152601760248201527f4e6f206163746976652062696420746f2061636365707400000000000000000060448201526064016102be565b60038201548154604051637921219560e11b81526001600160a01b039283169263f242432a926103aa923392909116908890600190600401610e8c565b600060405180830381600087803b1580156103c457600080fd5b505af11580156103d8573d6000803e3d6000fd5b50505050600181015460405133916108fc811502916000818181858888f1935050505015801561040c573d6000803e3d6000fd5b5060058201805460ff199081169091556003820180549091169055805460018201546040516001600160a01b039092169133917fc94b51939529c736abed465cef9c3c3cacd78ac7ee0855a967ef32f07935abec9161047391888252602082015260400190565b60405180910390a3600382015460018201546040516001600160a01b039092169133917fc36542c7a190a4c20a7f15a0ddc46871de452f269f15b0e621f11b48463b299f916104ca91888252602082015260400190565b60405180910390a3505050565b60008181526020819052604090206104ee82610d97565b600581015460ff166105375760405162461bcd60e51b8152602060048201526012602482015271125d195b481a5cc81b9bdd081b1a5cdd195960721b60448201526064016102be565b80546001600160a01b031633146105895760405162461bcd60e51b81526020600482015260166024820152752cb7ba9030b932903737ba103a34329039b2b63632b960511b60448201526064016102be565b60058101805460ff1916905560038101546040518381526001600160a01b039091169033907ffb87149f10f1ffda9c1df55fae0d68fe643c8be0790eec2f859205ed312cd68b906020015b60405180910390a35050565b60008281526020819052604090206105f783610d97565b600581015460ff166106425760405162461bcd60e51b81526020600482015260146024820152734974656d206973206e6f7420666f722073616c6560601b60448201526064016102be565b600083815260016020526040902061065984610dd2565b600034116106b35760405162461bcd60e51b815260206004820152602160248201527f42696420616d6f756e74206d7573742062652067726561746572207468616e206044820152600360fc1b60648201526084016102be565b8060010154341161071d5760405162461bcd60e51b815260206004820152602e60248201527f42696420616d6f756e74206d75737420626520686967686572207468616e207460448201526d1a194818dd5c9c995b9d08189a5960921b60648201526084016102be565b600381015460ff161561076957805460018201546040516001600160a01b039092169181156108fc0291906000818181858888f19350505050158015610767573d6000803e3d6000fd5b505b60006107758442610ec4565b604080516080810182523380825234602080840182815284860187815260016060870181815260008f81529482905293889020965187546001600160a01b03919091166001600160a01b0319909116178755915191860191909155516002850155516003909301805493151560ff1990941693909317909255915192935090917fb46d776cdb48d081a0c7d3ff32dc2792e4e8fbce788723207515723628020d32916108369189919086909283526020830191909152604082015260600190565b60405180910390a25050505050565b600081815260016020526040902061085c82610dd2565b600381015460ff166108b05760405162461bcd60e51b815260206004820152601760248201527f4e6f206163746976652062696420746f2063616e63656c00000000000000000060448201526064016102be565b80546001600160a01b031633146109025760405162461bcd60e51b81526020600482015260166024820152752cb7ba9030b932903737ba103a3432903134b23232b960511b60448201526064016102be565b6001810154604051339180156108fc02916000818181858888f19350505050158015610932573d6000803e3d6000fd5b5060038101805460ff1916905560405182815233907f251919ae8f37dab58eaf442981d38495abe61dc6ae1208c99fc6482a87e8ada59060200160405180910390a25050565b604051627eeac760e11b8152336004820152602481018490526000906001600160a01b0386169062fdd58e90604401602060405180830381865afa1580156109c4573d6000803e3d6000fd5b505050506040513d601f19601f820116820180604052508101906109e89190610eeb565b11610a355760405162461bcd60e51b815260206004820152601860248201527f596f7520646f6e2774206f776e207468697320746f6b656e000000000000000060448201526064016102be565b60008381526020819052604090206005015460ff1615610a8d5760405162461bcd60e51b8152602060048201526013602482015272125d195b48185b1c9958591e481b1a5cdd1959606a1b60448201526064016102be565b6000610a998242610ec4565b90506040518060c00160405280336001600160a01b03168152602001858152602001848152602001866001600160a01b031681526020018281526020016001151581525060008086815260200190815260200160002060008201518160000160006101000a8154816001600160a01b0302191690836001600160a01b03160217905550602082015181600101556040820151816002015560608201518160030160006101000a8154816001600160a01b0302191690836001600160a01b031602179055506080820151816004015560a08201518160050160006101000a81548160ff021916908315150217905550905050846001600160a01b0316336001600160a01b03167f91623fbd639d8d503fe2e77aab334b032313685f1b28c84d838c4b647b1f5d9d868685604051610be2939291909283526020830191909152604082015260600190565b60405180910390a35050505050565b6000818152602081905260409020610c0882610d97565b600581015460ff16610c505760405162461bcd60e51b81526020600482015260116024820152704974656d206e6f7420666f722073616c6560781b60448201526064016102be565b80600201543414610c955760405162461bcd60e51b815260206004820152600f60248201526e496e636f727265637420707269636560881b60448201526064016102be565b60038101548154604051637921219560e11b81526001600160a01b039283169263f242432a92610cd19291169033908790600190600401610e8c565b600060405180830381600087803b158015610ceb57600080fd5b505af1158015610cff573d6000803e3d6000fd5b50505060058201805460ff191690555080546040516001600160a01b03909116903480156108fc02916000818181858888f19350505050158015610d47573d6000803e3d6000fd5b50600381015460028201546040516001600160a01b039092169133917fc36542c7a190a4c20a7f15a0ddc46871de452f269f15b0e621f11b48463b299f916105d491878252602082015260400190565b6000818152602081905260409020600581015460ff168015610dbc5750806004015442115b15610dce5760058101805460ff191690555b5050565b6000818152600160205260409020600381015460ff168015610df75750806002015442115b15610dce57600301805460ff1916905550565b600060208284031215610e1c57600080fd5b5035919050565b60008060408385031215610e3657600080fd5b50508035926020909101359150565b60008060008060808587031215610e5b57600080fd5b84356001600160a01b0381168114610e7257600080fd5b966020860135965060408601359560600135945092505050565b6001600160a01b0394851681529290931660208301526040820152606081019190915260a06080820181905260009082015260c00190565b80820180821115610ee557634e487b7160e01b600052601160045260246000fd5b92915050565b600060208284031215610efd57600080fd5b505191905056fea26469706673582212208eaaf93a62f231378148463431cd4e06b332de021708b38d245e6baaf0464e7e64736f6c63430008140033",
  "linkReferences": {},
  "deployedLinkReferences": {}
}