{
  "_format": "hh-sol-artifact-1",
  "contractName": "ChefToken",
  "sourceName": "contracts/CFT.sol",
  "abi": [
    {
      "inputs": [
        {
          "components": [
            {
              "internalType": "string",
              "name": "name",
              "type": "string"
            },
            {
              "internalType": "string",
              "name": "symbol",
              "type": "string"
            },
            {
              "internalType": "string",
              "name": "newUri",
              "type": "string"
            },
            {
              "internalType": "address",
              "name": "initialOwner",
              "type": "address"
            }
          ],
          "internalType": "struct ChefToken.Collection",
          "name": "params",
          "type": "tuple"
        }
      ],
      "stateMutability": "nonpayable",
      "type": "constructor"
    },
    {
      "inputs": [
        {
          "internalType": "address",
          "name": "sender",
          "type": "address"
        },
        {
          "internalType": "uint256",
          "name": "balance",
          "type": "uint256"
        },
        {
          "internalType": "uint256",
          "name": "needed",
          "type": "uint256"
        },
        {
          "internalType": "uint256",
          "name": "tokenId",
          "type": "uint256"
        }
      ],
      "name": "ERC1155InsufficientBalance",
      "type": "error"
    },
    {
      "inputs": [
        {
          "internalType": "address",
          "name": "approver",
          "type": "address"
        }
      ],
      "name": "ERC1155InvalidApprover",
      "type": "error"
    },
    {
      "inputs": [
        {
          "internalType": "uint256",
          "name": "idsLength",
          "type": "uint256"
        },
        {
          "internalType": "uint256",
          "name": "valuesLength",
          "type": "uint256"
        }
      ],
      "name": "ERC1155InvalidArrayLength",
      "type": "error"
    },
    {
      "inputs": [
        {
          "internalType": "address",
          "name": "operator",
          "type": "address"
        }
      ],
      "name": "ERC1155InvalidOperator",
      "type": "error"
    },
    {
      "inputs": [
        {
          "internalType": "address",
          "name": "receiver",
          "type": "address"
        }
      ],
      "name": "ERC1155InvalidReceiver",
      "type": "error"
    },
    {
      "inputs": [
        {
          "internalType": "address",
          "name": "sender",
          "type": "address"
        }
      ],
      "name": "ERC1155InvalidSender",
      "type": "error"
    },
    {
      "inputs": [
        {
          "internalType": "address",
          "name": "operator",
          "type": "address"
        },
        {
          "internalType": "address",
          "name": "owner",
          "type": "address"
        }
      ],
      "name": "ERC1155MissingApprovalForAll",
      "type": "error"
    },
    {
      "inputs": [],
      "name": "EnforcedPause",
      "type": "error"
    },
    {
      "inputs": [],
      "name": "ExpectedPause",
      "type": "error"
    },
    {
      "inputs": [
        {
          "internalType": "address",
          "name": "owner",
          "type": "address"
        }
      ],
      "name": "OwnableInvalidOwner",
      "type": "error"
    },
    {
      "inputs": [
        {
          "internalType": "address",
          "name": "account",
          "type": "address"
        }
      ],
      "name": "OwnableUnauthorizedAccount",
      "type": "error"
    },
    {
      "anonymous": false,
      "inputs": [
        {
          "indexed": true,
          "internalType": "address",
          "name": "account",
          "type": "address"
        },
        {
          "indexed": true,
          "internalType": "address",
          "name": "operator",
          "type": "address"
        },
        {
          "indexed": false,
          "internalType": "bool",
          "name": "approved",
          "type": "bool"
        }
      ],
      "name": "ApprovalForAll",
      "type": "event"
    },
    {
      "anonymous": false,
      "inputs": [
        {
          "indexed": true,
          "internalType": "address",
          "name": "previousOwner",
          "type": "address"
        },
        {
          "indexed": true,
          "internalType": "address",
          "name": "newOwner",
          "type": "address"
        }
      ],
      "name": "OwnershipTransferred",
      "type": "event"
    },
    {
      "anonymous": false,
      "inputs": [
        {
          "indexed": false,
          "internalType": "address",
          "name": "account",
          "type": "address"
        }
      ],
      "name": "Paused",
      "type": "event"
    },
    {
      "anonymous": false,
      "inputs": [
        {
          "indexed": true,
          "internalType": "address",
          "name": "operator",
          "type": "address"
        },
        {
          "indexed": true,
          "internalType": "address",
          "name": "from",
          "type": "address"
        },
        {
          "indexed": true,
          "internalType": "address",
          "name": "to",
          "type": "address"
        },
        {
          "indexed": false,
          "internalType": "uint256[]",
          "name": "ids",
          "type": "uint256[]"
        },
        {
          "indexed": false,
          "internalType": "uint256[]",
          "name": "values",
          "type": "uint256[]"
        }
      ],
      "name": "TransferBatch",
      "type": "event"
    },
    {
      "anonymous": false,
      "inputs": [
        {
          "indexed": true,
          "internalType": "address",
          "name": "operator",
          "type": "address"
        },
        {
          "indexed": true,
          "internalType": "address",
          "name": "from",
          "type": "address"
        },
        {
          "indexed": true,
          "internalType": "address",
          "name": "to",
          "type": "address"
        },
        {
          "indexed": false,
          "internalType": "uint256",
          "name": "id",
          "type": "uint256"
        },
        {
          "indexed": false,
          "internalType": "uint256",
          "name": "value",
          "type": "uint256"
        }
      ],
      "name": "TransferSingle",
      "type": "event"
    },
    {
      "anonymous": false,
      "inputs": [
        {
          "indexed": false,
          "internalType": "string",
          "name": "value",
          "type": "string"
        },
        {
          "indexed": true,
          "internalType": "uint256",
          "name": "id",
          "type": "uint256"
        }
      ],
      "name": "URI",
      "type": "event"
    },
    {
      "anonymous": false,
      "inputs": [
        {
          "indexed": false,
          "internalType": "address",
          "name": "account",
          "type": "address"
        }
      ],
      "name": "Unpaused",
      "type": "event"
    },
    {
      "inputs": [
        {
          "internalType": "address",
          "name": "marketplaceAddress",
          "type": "address"
        },
        {
          "internalType": "bool",
          "name": "approved",
          "type": "bool"
        }
      ],
      "name": "approveMarketplace",
      "outputs": [],
      "stateMutability": "nonpayable",
      "type": "function"
    },
    {
      "inputs": [
        {
          "internalType": "address",
          "name": "account",
          "type": "address"
        },
        {
          "internalType": "uint256",
          "name": "id",
          "type": "uint256"
        }
      ],
      "name": "balanceOf",
      "outputs": [
        {
          "internalType": "uint256",
          "name": "",
          "type": "uint256"
        }
      ],
      "stateMutability": "view",
      "type": "function"
    },
    {
      "inputs": [
        {
          "internalType": "address[]",
          "name": "accounts",
          "type": "address[]"
        },
        {
          "internalType": "uint256[]",
          "name": "ids",
          "type": "uint256[]"
        }
      ],
      "name": "balanceOfBatch",
      "outputs": [
        {
          "internalType": "uint256[]",
          "name": "",
          "type": "uint256[]"
        }
      ],
      "stateMutability": "view",
      "type": "function"
    },
    {
      "inputs": [
        {
          "internalType": "address",
          "name": "account",
          "type": "address"
        },
        {
          "internalType": "uint256",
          "name": "id",
          "type": "uint256"
        },
        {
          "internalType": "uint256",
          "name": "value",
          "type": "uint256"
        }
      ],
      "name": "burn",
      "outputs": [],
      "stateMutability": "nonpayable",
      "type": "function"
    },
    {
      "inputs": [
        {
          "internalType": "address",
          "name": "account",
          "type": "address"
        },
        {
          "internalType": "uint256[]",
          "name": "ids",
          "type": "uint256[]"
        },
        {
          "internalType": "uint256[]",
          "name": "values",
          "type": "uint256[]"
        }
      ],
      "name": "burnBatch",
      "outputs": [],
      "stateMutability": "nonpayable",
      "type": "function"
    },
    {
      "inputs": [
        {
          "internalType": "uint256",
          "name": "id",
          "type": "uint256"
        }
      ],
      "name": "exists",
      "outputs": [
        {
          "internalType": "bool",
          "name": "",
          "type": "bool"
        }
      ],
      "stateMutability": "view",
      "type": "function"
    },
    {
      "inputs": [],
      "name": "getAllTokenURIs",
      "outputs": [
        {
          "internalType": "uint256[]",
          "name": "",
          "type": "uint256[]"
        },
        {
          "internalType": "string[]",
          "name": "",
          "type": "string[]"
        }
      ],
      "stateMutability": "view",
      "type": "function"
    },
    {
      "inputs": [
        {
          "internalType": "address",
          "name": "account",
          "type": "address"
        },
        {
          "internalType": "address",
          "name": "operator",
          "type": "address"
        }
      ],
      "name": "isApprovedForAll",
      "outputs": [
        {
          "internalType": "bool",
          "name": "",
          "type": "bool"
        }
      ],
      "stateMutability": "view",
      "type": "function"
    },
    {
      "inputs": [
        {
          "internalType": "address",
          "name": "account",
          "type": "address"
        },
        {
          "internalType": "uint256",
          "name": "amount",
          "type": "uint256"
        },
        {
          "internalType": "string",
          "name": "tokenURI",
          "type": "string"
        },
        {
          "internalType": "bytes",
          "name": "data",
          "type": "bytes"
        }
      ],
      "name": "mint",
      "outputs": [],
      "stateMutability": "nonpayable",
      "type": "function"
    },
    {
      "inputs": [
        {
          "internalType": "address",
          "name": "to",
          "type": "address"
        },
        {
          "internalType": "uint256[]",
          "name": "amounts",
          "type": "uint256[]"
        },
        {
          "internalType": "string[]",
          "name": "tokenURIs",
          "type": "string[]"
        },
        {
          "internalType": "bytes",
          "name": "data",
          "type": "bytes"
        }
      ],
      "name": "mintBatch",
      "outputs": [],
      "stateMutability": "nonpayable",
      "type": "function"
    },
    {
      "inputs": [],
      "name": "name",
      "outputs": [
        {
          "internalType": "string",
          "name": "",
          "type": "string"
        }
      ],
      "stateMutability": "view",
      "type": "function"
    },
    {
      "inputs": [],
      "name": "owner",
      "outputs": [
        {
          "internalType": "address",
          "name": "",
          "type": "address"
        }
      ],
      "stateMutability": "view",
      "type": "function"
    },
    {
      "inputs": [],
      "name": "pause",
      "outputs": [],
      "stateMutability": "nonpayable",
      "type": "function"
    },
    {
      "inputs": [],
      "name": "paused",
      "outputs": [
        {
          "internalType": "bool",
          "name": "",
          "type": "bool"
        }
      ],
      "stateMutability": "view",
      "type": "function"
    },
    {
      "inputs": [],
      "name": "renounceOwnership",
      "outputs": [],
      "stateMutability": "nonpayable",
      "type": "function"
    },
    {
      "inputs": [
        {
          "internalType": "address",
          "name": "from",
          "type": "address"
        },
        {
          "internalType": "address",
          "name": "to",
          "type": "address"
        },
        {
          "internalType": "uint256[]",
          "name": "ids",
          "type": "uint256[]"
        },
        {
          "internalType": "uint256[]",
          "name": "values",
          "type": "uint256[]"
        },
        {
          "internalType": "bytes",
          "name": "data",
          "type": "bytes"
        }
      ],
      "name": "safeBatchTransferFrom",
      "outputs": [],
      "stateMutability": "nonpayable",
      "type": "function"
    },
    {
      "inputs": [
        {
          "internalType": "address",
          "name": "from",
          "type": "address"
        },
        {
          "internalType": "address",
          "name": "to",
          "type": "address"
        },
        {
          "internalType": "uint256",
          "name": "id",
          "type": "uint256"
        },
        {
          "internalType": "uint256",
          "name": "value",
          "type": "uint256"
        },
        {
          "internalType": "bytes",
          "name": "data",
          "type": "bytes"
        }
      ],
      "name": "safeTransferFrom",
      "outputs": [],
      "stateMutability": "nonpayable",
      "type": "function"
    },
    {
      "inputs": [
        {
          "internalType": "address",
          "name": "operator",
          "type": "address"
        },
        {
          "internalType": "bool",
          "name": "approved",
          "type": "bool"
        }
      ],
      "name": "setApprovalForAll",
      "outputs": [],
      "stateMutability": "nonpayable",
      "type": "function"
    },
    {
      "inputs": [
        {
          "internalType": "string",
          "name": "newuri",
          "type": "string"
        }
      ],
      "name": "setURI",
      "outputs": [],
      "stateMutability": "nonpayable",
      "type": "function"
    },
    {
      "inputs": [
        {
          "internalType": "bytes4",
          "name": "interfaceId",
          "type": "bytes4"
        }
      ],
      "name": "supportsInterface",
      "outputs": [
        {
          "internalType": "bool",
          "name": "",
          "type": "bool"
        }
      ],
      "stateMutability": "view",
      "type": "function"
    },
    {
      "inputs": [],
      "name": "symbol",
      "outputs": [
        {
          "internalType": "string",
          "name": "",
          "type": "string"
        }
      ],
      "stateMutability": "view",
      "type": "function"
    },
    {
      "inputs": [],
      "name": "totalSupply",
      "outputs": [
        {
          "internalType": "uint256",
          "name": "",
          "type": "uint256"
        }
      ],
      "stateMutability": "view",
      "type": "function"
    },
    {
      "inputs": [
        {
          "internalType": "uint256",
          "name": "id",
          "type": "uint256"
        }
      ],
      "name": "totalSupply",
      "outputs": [
        {
          "internalType": "uint256",
          "name": "",
          "type": "uint256"
        }
      ],
      "stateMutability": "view",
      "type": "function"
    },
    {
      "inputs": [
        {
          "internalType": "address",
          "name": "newOwner",
          "type": "address"
        }
      ],
      "name": "transferOwnership",
      "outputs": [],
      "stateMutability": "nonpayable",
      "type": "function"
    },
    {
      "inputs": [],
      "name": "unpause",
      "outputs": [],
      "stateMutability": "nonpayable",
      "type": "function"
    },
    {
      "inputs": [
        {
          "internalType": "uint256",
          "name": "tokenId",
          "type": "uint256"
        }
      ],
      "name": "uri",
      "outputs": [
        {
          "internalType": "string",
          "name": "",
          "type": "string"
        }
      ],
      "stateMutability": "view",
      "type": "function"
    },
    {
      "inputs": [],
      "name": "withdraw",
      "outputs": [],
      "stateMutability": "nonpayable",
      "type": "function"
    }
  ],
  "bytecode": "0x60806040523480156200001157600080fd5b50604051620025ed380380620025ed833981016040819052620000349162000235565b606081015160408201516200004981620000d0565b506001600160a01b0381166200007957604051631e4fbdf760e01b81526000600482015260240160405180910390fd5b6200008481620000e2565b506003805460ff60a01b191690556040810151620000a290620000d0565b8051600690620000b39082620003ab565b506020810151600790620000c89082620003ab565b505062000477565b6002620000de8282620003ab565b5050565b600380546001600160a01b038381166001600160a01b0319831681179093556040519116919082907f8be0079c531659141344cd1fd0a4f28419497f9722a3daafe3b4186f6b6457e090600090a35050565b634e487b7160e01b600052604160045260246000fd5b604051608081016001600160401b03811182821017156200016f576200016f62000134565b60405290565b604051601f8201601f191681016001600160401b0381118282101715620001a057620001a062000134565b604052919050565b600082601f830112620001ba57600080fd5b81516001600160401b03811115620001d657620001d662000134565b6020620001ec601f8301601f1916820162000175565b82815285828487010111156200020157600080fd5b60005b838110156200022157858101830151828201840152820162000204565b506000928101909101919091529392505050565b6000602082840312156200024857600080fd5b81516001600160401b03808211156200026057600080fd5b90830190608082860312156200027557600080fd5b6200027f6200014a565b8251828111156200028f57600080fd5b6200029d87828601620001a8565b825250602083015182811115620002b357600080fd5b620002c187828601620001a8565b602083015250604083015182811115620002da57600080fd5b620002e887828601620001a8565b60408301525060609290920151916001600160a01b03831683146200030c57600080fd5b6060810192909252509392505050565b600181811c908216806200033157607f821691505b6020821081036200035257634e487b7160e01b600052602260045260246000fd5b50919050565b601f821115620003a657600081815260208120601f850160051c81016020861015620003815750805b601f850160051c820191505b81811015620003a2578281556001016200038d565b5050505b505050565b81516001600160401b03811115620003c757620003c762000134565b620003df81620003d884546200031c565b8462000358565b602080601f831160018114620004175760008415620003fe5750858301515b600019600386901b1c1916600185901b178555620003a2565b600085815260208120601f198616915b82811015620004485788860151825594840194600190910190840162000427565b5085821015620004675787850151600019600388901b60f8161c191681555b5050505050600190811b01905550565b61216680620004876000396000f3fe608060405234801561001057600080fd5b50600436106101a85760003560e01c8063715018a6116100f9578063bd85b03911610097578063e985e9c511610071578063e985e9c51461037a578063f242432a1461038d578063f2fde38b146103a0578063f5298aca146103b357600080fd5b8063bd85b03914610334578063d2b04fd614610354578063e00529061461036757600080fd5b80638da5cb5b116100d35780638da5cb5b146102eb57806395d89b4114610306578063a22cb4651461030e578063bb4dc10a1461032157600080fd5b8063715018a6146102c55780638456cb59146102cd57806389fde7af146102d557600080fd5b80632eb2c2d6116101665780634e1273f4116101405780634e1273f41461025e5780634f558e791461027e5780635c975abb146102a05780636b20c454146102b257600080fd5b80632eb2c2d61461023b5780633ccfd60b1461024e5780633f4ba83a1461025657600080fd5b8062fdd58e146101ad57806301ffc9a7146101d357806302fe5305146101f657806306fdde031461020b5780630e89341c1461022057806318160ddd14610233575b600080fd5b6101c06101bb36600461171f565b6103c6565b6040519081526020015b60405180910390f35b6101e66101e136600461175f565b6103ee565b60405190151581526020016101ca565b610209610204366004611838565b61043e565b005b610213610452565b6040516101ca91906118ba565b61021361022e3660046118cd565b6104e0565b6005546101c0565b610209610249366004611974565b610582565b6102096105ee565b610209610679565b61027161026c366004611a1d565b61068b565b6040516101ca9190611b17565b6101e661028c3660046118cd565b600090815260046020526040902054151590565b600354600160a01b900460ff166101e6565b6102096102c0366004611b2a565b61075f565b6102096107c3565b6102096107d5565b6102dd6107e5565b6040516101ca929190611b9d565b6003546040516001600160a01b0390911681526020016101ca565b610213610991565b61020961031c366004611c0f565b61099e565b61020961032f366004611c0f565b6109a9565b6101c06103423660046118cd565b60009081526004602052604090205490565b610209610362366004611c4b565b6109b3565b610209610375366004611cc8565b610a34565b6101e6610388366004611dc6565b610b86565b61020961039b366004611df9565b610bb4565b6102096103ae366004611e5d565b610c13565b6102096103c1366004611e78565b610c4e565b6000818152602081815260408083206001600160a01b03861684529091529020545b92915050565b60006001600160e01b03198216636cdb3d1360e11b148061041f57506001600160e01b031982166303a24d0760e21b145b806103e857506301ffc9a760e01b6001600160e01b03198316146103e8565b610446610c84565b61044f81610cb1565b50565b6006805461045f90611eab565b80601f016020809104026020016040519081016040528092919081815260200182805461048b90611eab565b80156104d85780601f106104ad576101008083540402835291602001916104d8565b820191906000526020600020905b8154815290600101906020018083116104bb57829003601f168201915b505050505081565b60008181526008602052604090208054606091906104fd90611eab565b80601f016020809104026020016040519081016040528092919081815260200182805461052990611eab565b80156105765780601f1061054b57610100808354040283529160200191610576565b820191906000526020600020905b81548152906001019060200180831161055957829003601f168201915b50505050509050919050565b336001600160a01b03861681148015906105a357506105a18682610b86565b155b156105d95760405163711bec9160e11b81526001600160a01b038083166004830152871660248201526044015b60405180910390fd5b6105e68686868686610cbd565b505050505050565b6105f6610c84565b478061063b5760405162461bcd60e51b81526020600482015260146024820152734e6f2066756e647320746f20776974686472617760601b60448201526064016105d0565b6003546040516001600160a01b039091169082156108fc029083906000818181858888f19350505050158015610675573d6000803e3d6000fd5b5050565b610681610c84565b610689610d1d565b565b606081518351146106bc5781518351604051635b05999160e01b8152600481019290925260248201526044016105d0565b600083516001600160401b038111156106d7576106d7611783565b604051908082528060200260200182016040528015610700578160200160208202803683370190505b50905060005b84518110156107575760208082028601015161072a906020808402870101516103c6565b82828151811061073c5761073c611ee5565b602090810291909101015261075081611f11565b9050610706565b509392505050565b6001600160a01b038316331480159061077f575061077d8333610b86565b155b156107b357335b60405163711bec9160e11b81526001600160a01b03918216600482015290841660248201526044016105d0565b6107be838383610d72565b505050565b6107cb610c84565b6106896000610db8565b6107dd610c84565b610689610e0a565b600a5460609081906000816001600160401b0381111561080757610807611783565b60405190808252806020026020018201604052801561083a57816020015b60608152602001906001900390816108255790505b50905060005b828110156109315760086000600a838154811061085f5761085f611ee5565b90600052602060002001548152602001908152602001600020805461088390611eab565b80601f01602080910402602001604051908101604052809291908181526020018280546108af90611eab565b80156108fc5780601f106108d1576101008083540402835291602001916108fc565b820191906000526020600020905b8154815290600101906020018083116108df57829003601f168201915b505050505082828151811061091357610913611ee5565b6020026020010181905250808061092990611f11565b915050610840565b50600a818180548060200260200160405190810160405280929190818152602001828054801561098057602002820191906000526020600020905b81548152602001906001019080831161096c575b505050505091509350935050509091565b6007805461045f90611eab565b610675338383610e4d565b610675828261099e565b6109bb610c84565b60008311610a0b5760405162461bcd60e51b815260206004820181905260248201527f416d6f756e74206d7573742062652067726561746572207468616e207a65726f60448201526064016105d0565b6000610a15610ee3565b9050610a2385828685610efe565b610a2d8184610f5b565b5050505050565b610a3c610c84565b8151835114610a815760405162461bcd60e51b81526020600482015260116024820152704d69736d6174636865642061727261797360781b60448201526064016105d0565b600083516001600160401b03811115610a9c57610a9c611783565b604051908082528060200260200182016040528015610ac5578160200160208202803683370190505b50905060005b84518110156105e657610adc610ee3565b828281518110610aee57610aee611ee5565b602002602001018181525050610b3886838381518110610b1057610b10611ee5565b6020026020010151878481518110610b2a57610b2a611ee5565b602002602001015186610efe565b610b74828281518110610b4d57610b4d611ee5565b6020026020010151858381518110610b6757610b67611ee5565b6020026020010151610f5b565b80610b7e81611f11565b915050610acb565b6001600160a01b03918216600090815260016020908152604080832093909416825291909152205460ff1690565b336001600160a01b0386168114801590610bd55750610bd38682610b86565b155b15610c065760405163711bec9160e11b81526001600160a01b038083166004830152871660248201526044016105d0565b6105e68686868686610fc4565b610c1b610c84565b6001600160a01b038116610c4557604051631e4fbdf760e01b8152600060048201526024016105d0565b61044f81610db8565b6001600160a01b0383163314801590610c6e5750610c6c8333610b86565b155b15610c795733610786565b6107be838383611052565b6003546001600160a01b031633146106895760405163118cdaa760e01b81523360048201526024016105d0565b60026106758282611f70565b6001600160a01b038416610ce757604051632bfa23e760e11b8152600060048201526024016105d0565b6001600160a01b038516610d1057604051626a0d4560e21b8152600060048201526024016105d0565b610a2d85858585856110b6565b610d25611109565b6003805460ff60a01b191690557f5db9ee0a495bf2e6ff9c91a7834c1ba4fdd244a5e8aa4e537bd38aeae4b073aa335b6040516001600160a01b03909116815260200160405180910390a1565b6001600160a01b038316610d9b57604051626a0d4560e21b8152600060048201526024016105d0565b6107be8360008484604051806020016040528060008152506110b6565b600380546001600160a01b038381166001600160a01b0319831681179093556040519116919082907f8be0079c531659141344cd1fd0a4f28419497f9722a3daafe3b4186f6b6457e090600090a35050565b610e12611133565b6003805460ff60a01b1916600160a01b1790557f62e78cea01bee320cd4e420270b5ea74000d11b0c9f74754ebdbfc544b05a258610d553390565b6001600160a01b038216610e765760405162ced3e160e81b8152600060048201526024016105d0565b6001600160a01b03838116600081815260016020908152604080832094871680845294825291829020805460ff191686151590811790915591519182527f17307eab39ab6107e8899845ad3d59bd9653f200f220920489ca2b5937696c31910160405180910390a3505050565b6000600960008154610ef490611f11565b9182905550919050565b6001600160a01b038416610f2857604051632bfa23e760e11b8152600060048201526024016105d0565b604080516001808252602082018690528183019081526060820185905260808201909252906105e66000878484876110b6565b6000815111610fac5760405162461bcd60e51b815260206004820152601b60248201527f546f6b656e20555249206d757374206e6f7420626520656d707479000000000060448201526064016105d0565b60008281526008602052604090206107be8282611f70565b6001600160a01b038416610fee57604051632bfa23e760e11b8152600060048201526024016105d0565b6001600160a01b03851661101757604051626a0d4560e21b8152600060048201526024016105d0565b6040805160018082526020820186905281830190815260608201859052608082019092529061104987878484876110b6565b50505050505050565b6001600160a01b03831661107b57604051626a0d4560e21b8152600060048201526024016105d0565b604080516001808252602082018590528183019081526060820184905260a08201909252600060808201818152919291610a2d918791859085905b6110c28585858561115e565b6001600160a01b03841615610a2d57825133906001036110fb57602084810151908401516110f4838989858589611170565b50506105e6565b6105e6818787878787611294565b600354600160a01b900460ff1661068957604051638dfc202b60e01b815260040160405180910390fd5b600354600160a01b900460ff16156106895760405163d93c066560e01b815260040160405180910390fd5b61116a8484848461137d565b50505050565b6001600160a01b0384163b156105e65760405163f23a6e6160e01b81526001600160a01b0385169063f23a6e61906111b4908990899088908890889060040161202f565b6020604051808303816000875af19250505080156111ef575060408051601f3d908101601f191682019092526111ec91810190612074565b60015b611258573d80801561121d576040519150601f19603f3d011682016040523d82523d6000602084013e611222565b606091505b50805160000361125057604051632bfa23e760e11b81526001600160a01b03861660048201526024016105d0565b805181602001fd5b6001600160e01b0319811663f23a6e6160e01b1461104957604051632bfa23e760e11b81526001600160a01b03861660048201526024016105d0565b6001600160a01b0384163b156105e65760405163bc197c8160e01b81526001600160a01b0385169063bc197c81906112d89089908990889088908890600401612091565b6020604051808303816000875af1925050508015611313575060408051601f3d908101601f1916820190925261131091810190612074565b60015b611341573d80801561121d576040519150601f19603f3d011682016040523d82523d6000602084013e611222565b6001600160e01b0319811663bc197c8160e01b1461104957604051632bfa23e760e11b81526001600160a01b03861660048201526024016105d0565b611389848484846114d7565b6001600160a01b03841661143c576000805b83518110156114225760008382815181106113b8576113b8611ee5565b6020026020010151905080600460008785815181106113d9576113d9611ee5565b6020026020010151815260200190815260200160002060008282546113fe91906120ef565b9091555061140e905081846120ef565b9250508061141b90611f11565b905061139b565b50806005600082825461143591906120ef565b9091555050505b6001600160a01b03831661116a576000805b83518110156114c657600083828151811061146b5761146b611ee5565b60200260200101519050806004600087858151811061148c5761148c611ee5565b6020026020010151815260200190815260200160002060008282540392505081905550808301925050806114bf90611f11565b905061144e565b506005805491909103905550505050565b6114df611133565b61116a8484848480518251146115155781518151604051635b05999160e01b8152600481019290925260248201526044016105d0565b3360005b8351811015611624576020818102858101820151908501909101516001600160a01b038816156115cc576000828152602081815260408083206001600160a01b038c168452909152902054818110156115a5576040516303dee4c560e01b81526001600160a01b038a1660048201526024810182905260448101839052606481018490526084016105d0565b6000838152602081815260408083206001600160a01b038d16845290915290209082900390555b6001600160a01b03871615611611576000828152602081815260408083206001600160a01b038b1684529091528120805483929061160b9084906120ef565b90915550505b50508061161d90611f11565b9050611519565b5082516001036116a55760208301516000906020840151909150856001600160a01b0316876001600160a01b0316846001600160a01b03167fc3d58168c5ae7397731d063d5bbf3d657854427343f4c083240f7aacaa2d0f628585604051611696929190918252602082015260400190565b60405180910390a45050610a2d565b836001600160a01b0316856001600160a01b0316826001600160a01b03167f4a39dc06d4c0dbc64b70af90fd698a233a518aa5d07e595d983b8c0526c8f7fb86866040516116f4929190612102565b60405180910390a45050505050565b80356001600160a01b038116811461171a57600080fd5b919050565b6000806040838503121561173257600080fd5b61173b83611703565b946020939093013593505050565b6001600160e01b03198116811461044f57600080fd5b60006020828403121561177157600080fd5b813561177c81611749565b9392505050565b634e487b7160e01b600052604160045260246000fd5b604051601f8201601f191681016001600160401b03811182821017156117c1576117c1611783565b604052919050565b600082601f8301126117da57600080fd5b81356001600160401b038111156117f3576117f3611783565b611806601f8201601f1916602001611799565b81815284602083860101111561181b57600080fd5b816020850160208301376000918101602001919091529392505050565b60006020828403121561184a57600080fd5b81356001600160401b0381111561186057600080fd5b61186c848285016117c9565b949350505050565b6000815180845260005b8181101561189a5760208185018101518683018201520161187e565b506000602082860101526020601f19601f83011685010191505092915050565b60208152600061177c6020830184611874565b6000602082840312156118df57600080fd5b5035919050565b60006001600160401b038211156118ff576118ff611783565b5060051b60200190565b600082601f83011261191a57600080fd5b8135602061192f61192a836118e6565b611799565b82815260059290921b8401810191818101908684111561194e57600080fd5b8286015b848110156119695780358352918301918301611952565b509695505050505050565b600080600080600060a0868803121561198c57600080fd5b61199586611703565b94506119a360208701611703565b935060408601356001600160401b03808211156119bf57600080fd5b6119cb89838a01611909565b945060608801359150808211156119e157600080fd5b6119ed89838a01611909565b93506080880135915080821115611a0357600080fd5b50611a10888289016117c9565b9150509295509295909350565b60008060408385031215611a3057600080fd5b82356001600160401b0380821115611a4757600080fd5b818501915085601f830112611a5b57600080fd5b81356020611a6b61192a836118e6565b82815260059290921b84018101918181019089841115611a8a57600080fd5b948201945b83861015611aaf57611aa086611703565b82529482019490820190611a8f565b96505086013592505080821115611ac557600080fd5b50611ad285828601611909565b9150509250929050565b600081518084526020808501945080840160005b83811015611b0c57815187529582019590820190600101611af0565b509495945050505050565b60208152600061177c6020830184611adc565b600080600060608486031215611b3f57600080fd5b611b4884611703565b925060208401356001600160401b0380821115611b6457600080fd5b611b7087838801611909565b93506040860135915080821115611b8657600080fd5b50611b9386828701611909565b9150509250925092565b604081526000611bb06040830185611adc565b6020838203818501528185518084528284019150828160051b85010183880160005b83811015611c0057601f19878403018552611bee838351611874565b94860194925090850190600101611bd2565b50909998505050505050505050565b60008060408385031215611c2257600080fd5b611c2b83611703565b915060208301358015158114611c4057600080fd5b809150509250929050565b60008060008060808587031215611c6157600080fd5b611c6a85611703565b93506020850135925060408501356001600160401b0380821115611c8d57600080fd5b611c99888389016117c9565b93506060870135915080821115611caf57600080fd5b50611cbc878288016117c9565b91505092959194509250565b60008060008060808587031215611cde57600080fd5b611ce785611703565b93506020808601356001600160401b0380821115611d0457600080fd5b611d1089838a01611909565b95506040880135915080821115611d2657600080fd5b818801915088601f830112611d3a57600080fd5b8135611d4861192a826118e6565b81815260059190911b8301840190848101908b831115611d6757600080fd5b8585015b83811015611d9f57803585811115611d835760008081fd5b611d918e89838a01016117c9565b845250918601918601611d6b565b50965050506060880135925080831115611db857600080fd5b5050611cbc878288016117c9565b60008060408385031215611dd957600080fd5b611de283611703565b9150611df060208401611703565b90509250929050565b600080600080600060a08688031215611e1157600080fd5b611e1a86611703565b9450611e2860208701611703565b9350604086013592506060860135915060808601356001600160401b03811115611e5157600080fd5b611a10888289016117c9565b600060208284031215611e6f57600080fd5b61177c82611703565b600080600060608486031215611e8d57600080fd5b611e9684611703565b95602085013595506040909401359392505050565b600181811c90821680611ebf57607f821691505b602082108103611edf57634e487b7160e01b600052602260045260246000fd5b50919050565b634e487b7160e01b600052603260045260246000fd5b634e487b7160e01b600052601160045260246000fd5b600060018201611f2357611f23611efb565b5060010190565b601f8211156107be57600081815260208120601f850160051c81016020861015611f515750805b601f850160051c820191505b818110156105e657828155600101611f5d565b81516001600160401b03811115611f8957611f89611783565b611f9d81611f978454611eab565b84611f2a565b602080601f831160018114611fd25760008415611fba5750858301515b600019600386901b1c1916600185901b1785556105e6565b600085815260208120601f198616915b8281101561200157888601518255948401946001909101908401611fe2565b508582101561201f5787850151600019600388901b60f8161c191681555b5050505050600190811b01905550565b6001600160a01b03868116825285166020820152604081018490526060810183905260a06080820181905260009061206990830184611874565b979650505050505050565b60006020828403121561208657600080fd5b815161177c81611749565b6001600160a01b0386811682528516602082015260a0604082018190526000906120bd90830186611adc565b82810360608401526120cf8186611adc565b905082810360808401526120e38185611874565b98975050505050505050565b808201808211156103e8576103e8611efb565b6040815260006121156040830185611adc565b82810360208401526121278185611adc565b9594505050505056fea26469706673582212209c2a31ed6708b3b522d4a585ee19d8c7bc6e52c64133af240dc363139e98906564736f6c63430008140033",
  "linkReferences": {},
  "deployedLinkReferences": {}
}