{
  "_format": "hh-sol-artifact-1",
  "contractName": "ChefDropToken",
  "sourceName": "contracts/CFTDrop.sol",
  "abi": [
    {
      "inputs": [
        {
          "components": [
            {
              "internalType": "string",
              "name": "name",
              "type": "string"
            },
            {
              "internalType": "string",
              "name": "symbol",
              "type": "string"
            },
            {
              "internalType": "string",
              "name": "nftType",
              "type": "string"
            },
            {
              "internalType": "string",
              "name": "logoImage",
              "type": "string"
            },
            {
              "internalType": "string",
              "name": "newUri",
              "type": "string"
            },
            {
              "internalType": "address",
              "name": "initialOwner",
              "type": "address"
            },
            {
              "internalType": "uint256",
              "name": "startingDate",
              "type": "uint256"
            },
            {
              "internalType": "uint256",
              "name": "endDate",
              "type": "uint256"
            }
          ],
          "internalType": "struct ChefDropToken.Collection",
          "name": "params",
          "type": "tuple"
        }
      ],
      "stateMutability": "nonpayable",
      "type": "constructor"
    },
    {
      "inputs": [
        {
          "internalType": "address",
          "name": "sender",
          "type": "address"
        },
        {
          "internalType": "uint256",
          "name": "balance",
          "type": "uint256"
        },
        {
          "internalType": "uint256",
          "name": "needed",
          "type": "uint256"
        },
        {
          "internalType": "uint256",
          "name": "tokenId",
          "type": "uint256"
        }
      ],
      "name": "ERC1155InsufficientBalance",
      "type": "error"
    },
    {
      "inputs": [
        {
          "internalType": "address",
          "name": "approver",
          "type": "address"
        }
      ],
      "name": "ERC1155InvalidApprover",
      "type": "error"
    },
    {
      "inputs": [
        {
          "internalType": "uint256",
          "name": "idsLength",
          "type": "uint256"
        },
        {
          "internalType": "uint256",
          "name": "valuesLength",
          "type": "uint256"
        }
      ],
      "name": "ERC1155InvalidArrayLength",
      "type": "error"
    },
    {
      "inputs": [
        {
          "internalType": "address",
          "name": "operator",
          "type": "address"
        }
      ],
      "name": "ERC1155InvalidOperator",
      "type": "error"
    },
    {
      "inputs": [
        {
          "internalType": "address",
          "name": "receiver",
          "type": "address"
        }
      ],
      "name": "ERC1155InvalidReceiver",
      "type": "error"
    },
    {
      "inputs": [
        {
          "internalType": "address",
          "name": "sender",
          "type": "address"
        }
      ],
      "name": "ERC1155InvalidSender",
      "type": "error"
    },
    {
      "inputs": [
        {
          "internalType": "address",
          "name": "operator",
          "type": "address"
        },
        {
          "internalType": "address",
          "name": "owner",
          "type": "address"
        }
      ],
      "name": "ERC1155MissingApprovalForAll",
      "type": "error"
    },
    {
      "inputs": [],
      "name": "EnforcedPause",
      "type": "error"
    },
    {
      "inputs": [],
      "name": "ExpectedPause",
      "type": "error"
    },
    {
      "inputs": [
        {
          "internalType": "address",
          "name": "owner",
          "type": "address"
        }
      ],
      "name": "OwnableInvalidOwner",
      "type": "error"
    },
    {
      "inputs": [
        {
          "internalType": "address",
          "name": "account",
          "type": "address"
        }
      ],
      "name": "OwnableUnauthorizedAccount",
      "type": "error"
    },
    {
      "anonymous": false,
      "inputs": [
        {
          "indexed": true,
          "internalType": "address",
          "name": "account",
          "type": "address"
        },
        {
          "indexed": true,
          "internalType": "address",
          "name": "operator",
          "type": "address"
        },
        {
          "indexed": false,
          "internalType": "bool",
          "name": "approved",
          "type": "bool"
        }
      ],
      "name": "ApprovalForAll",
      "type": "event"
    },
    {
      "anonymous": false,
      "inputs": [
        {
          "indexed": true,
          "internalType": "address",
          "name": "previousOwner",
          "type": "address"
        },
        {
          "indexed": true,
          "internalType": "address",
          "name": "newOwner",
          "type": "address"
        }
      ],
      "name": "OwnershipTransferred",
      "type": "event"
    },
    {
      "anonymous": false,
      "inputs": [
        {
          "indexed": false,
          "internalType": "address",
          "name": "account",
          "type": "address"
        }
      ],
      "name": "Paused",
      "type": "event"
    },
    {
      "anonymous": false,
      "inputs": [
        {
          "indexed": true,
          "internalType": "address",
          "name": "operator",
          "type": "address"
        },
        {
          "indexed": true,
          "internalType": "address",
          "name": "from",
          "type": "address"
        },
        {
          "indexed": true,
          "internalType": "address",
          "name": "to",
          "type": "address"
        },
        {
          "indexed": false,
          "internalType": "uint256[]",
          "name": "ids",
          "type": "uint256[]"
        },
        {
          "indexed": false,
          "internalType": "uint256[]",
          "name": "values",
          "type": "uint256[]"
        }
      ],
      "name": "TransferBatch",
      "type": "event"
    },
    {
      "anonymous": false,
      "inputs": [
        {
          "indexed": true,
          "internalType": "address",
          "name": "operator",
          "type": "address"
        },
        {
          "indexed": true,
          "internalType": "address",
          "name": "from",
          "type": "address"
        },
        {
          "indexed": true,
          "internalType": "address",
          "name": "to",
          "type": "address"
        },
        {
          "indexed": false,
          "internalType": "uint256",
          "name": "id",
          "type": "uint256"
        },
        {
          "indexed": false,
          "internalType": "uint256",
          "name": "value",
          "type": "uint256"
        }
      ],
      "name": "TransferSingle",
      "type": "event"
    },
    {
      "anonymous": false,
      "inputs": [
        {
          "indexed": false,
          "internalType": "string",
          "name": "value",
          "type": "string"
        },
        {
          "indexed": true,
          "internalType": "uint256",
          "name": "id",
          "type": "uint256"
        }
      ],
      "name": "URI",
      "type": "event"
    },
    {
      "anonymous": false,
      "inputs": [
        {
          "indexed": false,
          "internalType": "address",
          "name": "account",
          "type": "address"
        }
      ],
      "name": "Unpaused",
      "type": "event"
    },
    {
      "inputs": [
        {
          "internalType": "address",
          "name": "marketplaceAddress",
          "type": "address"
        },
        {
          "internalType": "bool",
          "name": "approved",
          "type": "bool"
        }
      ],
      "name": "approveMarketplace",
      "outputs": [],
      "stateMutability": "nonpayable",
      "type": "function"
    },
    {
      "inputs": [
        {
          "internalType": "address",
          "name": "account",
          "type": "address"
        },
        {
          "internalType": "uint256",
          "name": "id",
          "type": "uint256"
        }
      ],
      "name": "balanceOf",
      "outputs": [
        {
          "internalType": "uint256",
          "name": "",
          "type": "uint256"
        }
      ],
      "stateMutability": "view",
      "type": "function"
    },
    {
      "inputs": [
        {
          "internalType": "address[]",
          "name": "accounts",
          "type": "address[]"
        },
        {
          "internalType": "uint256[]",
          "name": "ids",
          "type": "uint256[]"
        }
      ],
      "name": "balanceOfBatch",
      "outputs": [
        {
          "internalType": "uint256[]",
          "name": "",
          "type": "uint256[]"
        }
      ],
      "stateMutability": "view",
      "type": "function"
    },
    {
      "inputs": [
        {
          "internalType": "address",
          "name": "account",
          "type": "address"
        },
        {
          "internalType": "uint256",
          "name": "id",
          "type": "uint256"
        },
        {
          "internalType": "uint256",
          "name": "value",
          "type": "uint256"
        }
      ],
      "name": "burn",
      "outputs": [],
      "stateMutability": "nonpayable",
      "type": "function"
    },
    {
      "inputs": [
        {
          "internalType": "address",
          "name": "account",
          "type": "address"
        },
        {
          "internalType": "uint256[]",
          "name": "ids",
          "type": "uint256[]"
        },
        {
          "internalType": "uint256[]",
          "name": "values",
          "type": "uint256[]"
        }
      ],
      "name": "burnBatch",
      "outputs": [],
      "stateMutability": "nonpayable",
      "type": "function"
    },
    {
      "inputs": [],
      "name": "endDate",
      "outputs": [
        {
          "internalType": "uint256",
          "name": "",
          "type": "uint256"
        }
      ],
      "stateMutability": "view",
      "type": "function"
    },
    {
      "inputs": [
        {
          "internalType": "uint256",
          "name": "id",
          "type": "uint256"
        }
      ],
      "name": "exists",
      "outputs": [
        {
          "internalType": "bool",
          "name": "",
          "type": "bool"
        }
      ],
      "stateMutability": "view",
      "type": "function"
    },
    {
      "inputs": [
        {
          "internalType": "address",
          "name": "account",
          "type": "address"
        },
        {
          "internalType": "address",
          "name": "operator",
          "type": "address"
        }
      ],
      "name": "isApprovedForAll",
      "outputs": [
        {
          "internalType": "bool",
          "name": "",
          "type": "bool"
        }
      ],
      "stateMutability": "view",
      "type": "function"
    },
    {
      "inputs": [],
      "name": "logoImage",
      "outputs": [
        {
          "internalType": "string",
          "name": "",
          "type": "string"
        }
      ],
      "stateMutability": "view",
      "type": "function"
    },
    {
      "inputs": [
        {
          "internalType": "address",
          "name": "account",
          "type": "address"
        },
        {
          "internalType": "uint256",
          "name": "id",
          "type": "uint256"
        },
        {
          "internalType": "uint256",
          "name": "amount",
          "type": "uint256"
        },
        {
          "internalType": "string",
          "name": "tokenURI",
          "type": "string"
        },
        {
          "internalType": "bytes",
          "name": "data",
          "type": "bytes"
        }
      ],
      "name": "mint",
      "outputs": [],
      "stateMutability": "nonpayable",
      "type": "function"
    },
    {
      "inputs": [
        {
          "internalType": "address",
          "name": "to",
          "type": "address"
        },
        {
          "internalType": "uint256[]",
          "name": "ids",
          "type": "uint256[]"
        },
        {
          "internalType": "uint256[]",
          "name": "amounts",
          "type": "uint256[]"
        },
        {
          "internalType": "string[]",
          "name": "tokenURIs",
          "type": "string[]"
        },
        {
          "internalType": "bytes",
          "name": "data",
          "type": "bytes"
        }
      ],
      "name": "mintBatch",
      "outputs": [],
      "stateMutability": "nonpayable",
      "type": "function"
    },
    {
      "inputs": [],
      "name": "name",
      "outputs": [
        {
          "internalType": "string",
          "name": "",
          "type": "string"
        }
      ],
      "stateMutability": "view",
      "type": "function"
    },
    {
      "inputs": [],
      "name": "nftType",
      "outputs": [
        {
          "internalType": "string",
          "name": "",
          "type": "string"
        }
      ],
      "stateMutability": "view",
      "type": "function"
    },
    {
      "inputs": [],
      "name": "owner",
      "outputs": [
        {
          "internalType": "address",
          "name": "",
          "type": "address"
        }
      ],
      "stateMutability": "view",
      "type": "function"
    },
    {
      "inputs": [],
      "name": "pause",
      "outputs": [],
      "stateMutability": "nonpayable",
      "type": "function"
    },
    {
      "inputs": [],
      "name": "paused",
      "outputs": [
        {
          "internalType": "bool",
          "name": "",
          "type": "bool"
        }
      ],
      "stateMutability": "view",
      "type": "function"
    },
    {
      "inputs": [
        {
          "internalType": "uint256",
          "name": "id",
          "type": "uint256"
        },
        {
          "internalType": "uint256",
          "name": "amount",
          "type": "uint256"
        },
        {
          "internalType": "string",
          "name": "tokenURI",
          "type": "string"
        },
        {
          "internalType": "bytes",
          "name": "data",
          "type": "bytes"
        }
      ],
      "name": "publicMint",
      "outputs": [],
      "stateMutability": "payable",
      "type": "function"
    },
    {
      "inputs": [],
      "name": "renounceOwnership",
      "outputs": [],
      "stateMutability": "nonpayable",
      "type": "function"
    },
    {
      "inputs": [
        {
          "internalType": "address",
          "name": "from",
          "type": "address"
        },
        {
          "internalType": "address",
          "name": "to",
          "type": "address"
        },
        {
          "internalType": "uint256[]",
          "name": "ids",
          "type": "uint256[]"
        },
        {
          "internalType": "uint256[]",
          "name": "values",
          "type": "uint256[]"
        },
        {
          "internalType": "bytes",
          "name": "data",
          "type": "bytes"
        }
      ],
      "name": "safeBatchTransferFrom",
      "outputs": [],
      "stateMutability": "nonpayable",
      "type": "function"
    },
    {
      "inputs": [
        {
          "internalType": "address",
          "name": "from",
          "type": "address"
        },
        {
          "internalType": "address",
          "name": "to",
          "type": "address"
        },
        {
          "internalType": "uint256",
          "name": "id",
          "type": "uint256"
        },
        {
          "internalType": "uint256",
          "name": "value",
          "type": "uint256"
        },
        {
          "internalType": "bytes",
          "name": "data",
          "type": "bytes"
        }
      ],
      "name": "safeTransferFrom",
      "outputs": [],
      "stateMutability": "nonpayable",
      "type": "function"
    },
    {
      "inputs": [
        {
          "internalType": "address",
          "name": "operator",
          "type": "address"
        },
        {
          "internalType": "bool",
          "name": "approved",
          "type": "bool"
        }
      ],
      "name": "setApprovalForAll",
      "outputs": [],
      "stateMutability": "nonpayable",
      "type": "function"
    },
    {
      "inputs": [
        {
          "internalType": "string",
          "name": "newuri",
          "type": "string"
        }
      ],
      "name": "setURI",
      "outputs": [],
      "stateMutability": "nonpayable",
      "type": "function"
    },
    {
      "inputs": [],
      "name": "startingDate",
      "outputs": [
        {
          "internalType": "uint256",
          "name": "",
          "type": "uint256"
        }
      ],
      "stateMutability": "view",
      "type": "function"
    },
    {
      "inputs": [
        {
          "internalType": "bytes4",
          "name": "interfaceId",
          "type": "bytes4"
        }
      ],
      "name": "supportsInterface",
      "outputs": [
        {
          "internalType": "bool",
          "name": "",
          "type": "bool"
        }
      ],
      "stateMutability": "view",
      "type": "function"
    },
    {
      "inputs": [],
      "name": "symbol",
      "outputs": [
        {
          "internalType": "string",
          "name": "",
          "type": "string"
        }
      ],
      "stateMutability": "view",
      "type": "function"
    },
    {
      "inputs": [],
      "name": "totalSupply",
      "outputs": [
        {
          "internalType": "uint256",
          "name": "",
          "type": "uint256"
        }
      ],
      "stateMutability": "view",
      "type": "function"
    },
    {
      "inputs": [
        {
          "internalType": "uint256",
          "name": "id",
          "type": "uint256"
        }
      ],
      "name": "totalSupply",
      "outputs": [
        {
          "internalType": "uint256",
          "name": "",
          "type": "uint256"
        }
      ],
      "stateMutability": "view",
      "type": "function"
    },
    {
      "inputs": [
        {
          "internalType": "address",
          "name": "newOwner",
          "type": "address"
        }
      ],
      "name": "transferOwnership",
      "outputs": [],
      "stateMutability": "nonpayable",
      "type": "function"
    },
    {
      "inputs": [],
      "name": "unpause",
      "outputs": [],
      "stateMutability": "nonpayable",
      "type": "function"
    },
    {
      "inputs": [
        {
          "internalType": "uint256",
          "name": "tokenId",
          "type": "uint256"
        }
      ],
      "name": "uri",
      "outputs": [
        {
          "internalType": "string",
          "name": "",
          "type": "string"
        }
      ],
      "stateMutability": "view",
      "type": "function"
    },
    {
      "inputs": [],
      "name": "withdraw",
      "outputs": [],
      "stateMutability": "nonpayable",
      "type": "function"
    }
  ],
  "bytecode": "0x60806040523480156200001157600080fd5b50604051620027f0380380620027f083398101604081905262000034916200028d565b60a0810151608082015162000049816200010a565b506001600160a01b0381166200007957604051631e4fbdf760e01b81526000600482015260240160405180910390fd5b62000084816200011c565b506003805460ff60a01b191690556080810151620000a2906200010a565b8051600690620000b3908262000457565b506020810151600790620000c8908262000457565b506060810151600890620000dd908262000457565b5060c081015160095560e0810151600a556040810151600b9062000102908262000457565b505062000523565b600262000118828262000457565b5050565b600380546001600160a01b038381166001600160a01b0319831681179093556040519116919082907f8be0079c531659141344cd1fd0a4f28419497f9722a3daafe3b4186f6b6457e090600090a35050565b634e487b7160e01b600052604160045260246000fd5b60405161010081016001600160401b0381118282101715620001aa57620001aa6200016e565b60405290565b604051601f8201601f191681016001600160401b0381118282101715620001db57620001db6200016e565b604052919050565b600082601f830112620001f557600080fd5b81516001600160401b038111156200021157620002116200016e565b602062000227601f8301601f19168201620001b0565b82815285828487010111156200023c57600080fd5b60005b838110156200025c5785810183015182820184015282016200023f565b506000928101909101919091529392505050565b80516001600160a01b03811681146200028857600080fd5b919050565b600060208284031215620002a057600080fd5b81516001600160401b0380821115620002b857600080fd5b908301906101008286031215620002ce57600080fd5b620002d862000184565b825182811115620002e857600080fd5b620002f687828601620001e3565b8252506020830151828111156200030c57600080fd5b6200031a87828601620001e3565b6020830152506040830151828111156200033357600080fd5b6200034187828601620001e3565b6040830152506060830151828111156200035a57600080fd5b6200036887828601620001e3565b6060830152506080830151828111156200038157600080fd5b6200038f87828601620001e3565b608083015250620003a360a0840162000270565b60a082015260c083015160c082015260e083015160e082015280935050505092915050565b600181811c90821680620003dd57607f821691505b602082108103620003fe57634e487b7160e01b600052602260045260246000fd5b50919050565b601f8211156200045257600081815260208120601f850160051c810160208610156200042d5750805b601f850160051c820191505b818110156200044e5782815560010162000439565b5050505b505050565b81516001600160401b038111156200047357620004736200016e565b6200048b81620004848454620003c8565b8462000404565b602080601f831160018114620004c35760008415620004aa5750858301515b600019600386901b1c1916600185901b1785556200044e565b600085815260208120601f198616915b82811015620004f457888601518255948401946001909101908401620004d3565b5085821015620005135787850151600019600388901b60f8161c191681555b5050505050600190811b01905550565b6122bd80620005336000396000f3fe6080604052600436106101d75760003560e01c80636fac889b11610102578063bb4dc10a11610095578063f242432a11610064578063f242432a14610525578063f2fde38b14610545578063f5298aca14610565578063fb8877c51461058557600080fd5b8063bb4dc10a146104a2578063bd85b039146104c2578063c24a0f8b146104ef578063e985e9c51461050557600080fd5b806395d89b41116100d157806395d89b411461042d578063a22cb46514610442578063a4b645eb14610462578063b9571e841461048257600080fd5b80636fac889b146103c6578063715018a6146103db5780638456cb59146103f05780638da5cb5b1461040557600080fd5b806337ca31891161017a5780634e1273f4116101495780634e1273f41461032b5780634f558e79146103585780635c975abb146103875780636b20c454146103a657600080fd5b806337ca3189146102d85780633ccfd60b146102eb5780633e3ff7b6146103005780633f4ba83a1461031657600080fd5b806306fdde03116101b657806306fdde03146102615780630e89341c1461028357806318160ddd146102a35780632eb2c2d6146102b857600080fd5b8062fdd58e146101dc57806301ffc9a71461020f57806302fe53051461023f575b600080fd5b3480156101e857600080fd5b506101fc6101f7366004611812565b61059a565b6040519081526020015b60405180910390f35b34801561021b57600080fd5b5061022f61022a366004611852565b6105c2565b6040519015158152602001610206565b34801561024b57600080fd5b5061025f61025a36600461192b565b610612565b005b34801561026d57600080fd5b50610276610626565b60405161020691906119ad565b34801561028f57600080fd5b5061027661029e3660046119c0565b6106b4565b3480156102af57600080fd5b506005546101fc565b3480156102c457600080fd5b5061025f6102d3366004611a67565b610756565b61025f6102e6366004611b10565b6107c2565b3480156102f757600080fd5b5061025f610872565b34801561030c57600080fd5b506101fc60095481565b34801561032257600080fd5b5061025f6108fd565b34801561033757600080fd5b5061034b610346366004611b86565b61090f565b6040516102069190611c80565b34801561036457600080fd5b5061022f6103733660046119c0565b600090815260046020526040902054151590565b34801561039357600080fd5b50600354600160a01b900460ff1661022f565b3480156103b257600080fd5b5061025f6103c1366004611c93565b6109e3565b3480156103d257600080fd5b50610276610a47565b3480156103e757600080fd5b5061025f610a54565b3480156103fc57600080fd5b5061025f610a66565b34801561041157600080fd5b506003546040516001600160a01b039091168152602001610206565b34801561043957600080fd5b50610276610a76565b34801561044e57600080fd5b5061025f61045d366004611d06565b610a83565b34801561046e57600080fd5b5061025f61047d366004611d42565b610a8e565b34801561048e57600080fd5b5061025f61049d366004611d99565b610b47565b3480156104ae57600080fd5b5061025f6104bd366004611d06565b610c4b565b3480156104ce57600080fd5b506101fc6104dd3660046119c0565b60009081526004602052604090205490565b3480156104fb57600080fd5b506101fc600a5481565b34801561051157600080fd5b5061022f610520366004611ebb565b610c55565b34801561053157600080fd5b5061025f610540366004611eee565b610c83565b34801561055157600080fd5b5061025f610560366004611f52565b610ce2565b34801561057157600080fd5b5061025f610580366004611f6d565b610d1d565b34801561059157600080fd5b50610276610d53565b6000818152602081815260408083206001600160a01b03861684529091529020545b92915050565b60006001600160e01b03198216636cdb3d1360e11b14806105f357506001600160e01b031982166303a24d0760e21b145b806105bc57506301ffc9a760e01b6001600160e01b03198316146105bc565b61061a610d60565b61062381610d8d565b50565b6006805461063390611fa0565b80601f016020809104026020016040519081016040528092919081815260200182805461065f90611fa0565b80156106ac5780601f10610681576101008083540402835291602001916106ac565b820191906000526020600020905b81548152906001019060200180831161068f57829003601f168201915b505050505081565b6000818152600c602052604090208054606091906106d190611fa0565b80601f01602080910402602001604051908101604052809291908181526020018280546106fd90611fa0565b801561074a5780601f1061071f5761010080835404028352916020019161074a565b820191906000526020600020905b81548152906001019060200180831161072d57829003601f168201915b50505050509050919050565b336001600160a01b038616811480159061077757506107758682610c55565b155b156107ad5760405163711bec9160e11b81526001600160a01b038083166004830152871660248201526044015b60405180910390fd5b6107ba8686868686610d99565b505050505050565b6009544210156107e45760405162461bcd60e51b81526004016107a490611fda565b600a544211156108065760405162461bcd60e51b81526004016107a490612011565b600083116108565760405162461bcd60e51b815260206004820181905260248201527f416d6f756e74206d7573742062652067726561746572207468616e207a65726f60448201526064016107a4565b61086233858584610df9565b61086c8483610e56565b50505050565b61087a610d60565b47806108bf5760405162461bcd60e51b81526020600482015260146024820152734e6f2066756e647320746f20776974686472617760601b60448201526064016107a4565b6003546040516001600160a01b039091169082156108fc029083906000818181858888f193505050501580156108f9573d6000803e3d6000fd5b5050565b610905610d60565b61090d610ebf565b565b606081518351146109405781518351604051635b05999160e01b8152600481019290925260248201526044016107a4565b600083516001600160401b0381111561095b5761095b611876565b604051908082528060200260200182016040528015610984578160200160208202803683370190505b50905060005b84518110156109db576020808202860101516109ae9060208084028701015161059a565b8282815181106109c0576109c061203c565b60209081029190910101526109d481612068565b905061098a565b509392505050565b6001600160a01b0383163314801590610a035750610a018333610c55565b155b15610a3757335b60405163711bec9160e11b81526001600160a01b03918216600482015290841660248201526044016107a4565b610a42838383610f14565b505050565b600b805461063390611fa0565b610a5c610d60565b61090d6000610f5a565b610a6e610d60565b61090d610fac565b6007805461063390611fa0565b6108f9338383610fef565b610a96610d60565b600954421015610ab85760405162461bcd60e51b81526004016107a490611fda565b600a54421115610ada5760405162461bcd60e51b81526004016107a490612011565b60008311610b2a5760405162461bcd60e51b815260206004820181905260248201527f416d6f756e74206d7573742062652067726561746572207468616e207a65726f60448201526064016107a4565b610b3685858584610df9565b610b408483610e56565b5050505050565b610b4f610d60565b600954421015610b715760405162461bcd60e51b81526004016107a490611fda565b600a54421115610b935760405162461bcd60e51b81526004016107a490612011565b82518451148015610ba5575081518451145b610be55760405162461bcd60e51b81526020600482015260116024820152704d69736d6174636865642061727261797360781b60448201526064016107a4565b610bf185858584611085565b60005b84518110156107ba57610c39858281518110610c1257610c1261203c565b6020026020010151848381518110610c2c57610c2c61203c565b6020026020010151610e56565b80610c4381612068565b915050610bf4565b6108f98282610a83565b6001600160a01b03918216600090815260016020908152604080832093909416825291909152205460ff1690565b336001600160a01b0386168114801590610ca45750610ca28682610c55565b155b15610cd55760405163711bec9160e11b81526001600160a01b038083166004830152871660248201526044016107a4565b6107ba86868686866110bd565b610cea610d60565b6001600160a01b038116610d1457604051631e4fbdf760e01b8152600060048201526024016107a4565b61062381610f5a565b6001600160a01b0383163314801590610d3d5750610d3b8333610c55565b155b15610d485733610a0a565b610a4283838361114b565b6008805461063390611fa0565b6003546001600160a01b0316331461090d5760405163118cdaa760e01b81523360048201526024016107a4565b60026108f982826120c7565b6001600160a01b038416610dc357604051632bfa23e760e11b8152600060048201526024016107a4565b6001600160a01b038516610dec57604051626a0d4560e21b8152600060048201526024016107a4565b610b4085858585856111af565b6001600160a01b038416610e2357604051632bfa23e760e11b8152600060048201526024016107a4565b604080516001808252602082018690528183019081526060820185905260808201909252906107ba6000878484876111af565b6000815111610ea75760405162461bcd60e51b815260206004820152601b60248201527f546f6b656e20555249206d757374206e6f7420626520656d707479000000000060448201526064016107a4565b6000828152600c60205260409020610a4282826120c7565b610ec7611202565b6003805460ff60a01b191690557f5db9ee0a495bf2e6ff9c91a7834c1ba4fdd244a5e8aa4e537bd38aeae4b073aa335b6040516001600160a01b03909116815260200160405180910390a1565b6001600160a01b038316610f3d57604051626a0d4560e21b8152600060048201526024016107a4565b610a428360008484604051806020016040528060008152506111af565b600380546001600160a01b038381166001600160a01b0319831681179093556040519116919082907f8be0079c531659141344cd1fd0a4f28419497f9722a3daafe3b4186f6b6457e090600090a35050565b610fb461122c565b6003805460ff60a01b1916600160a01b1790557f62e78cea01bee320cd4e420270b5ea74000d11b0c9f74754ebdbfc544b05a258610ef73390565b6001600160a01b0382166110185760405162ced3e160e81b8152600060048201526024016107a4565b6001600160a01b03838116600081815260016020908152604080832094871680845294825291829020805460ff191686151590811790915591519182527f17307eab39ab6107e8899845ad3d59bd9653f200f220920489ca2b5937696c31910160405180910390a3505050565b6001600160a01b0384166110af57604051632bfa23e760e11b8152600060048201526024016107a4565b61086c6000858585856111af565b6001600160a01b0384166110e757604051632bfa23e760e11b8152600060048201526024016107a4565b6001600160a01b03851661111057604051626a0d4560e21b8152600060048201526024016107a4565b6040805160018082526020820186905281830190815260608201859052608082019092529061114287878484876111af565b50505050505050565b6001600160a01b03831661117457604051626a0d4560e21b8152600060048201526024016107a4565b604080516001808252602082018590528183019081526060820184905260a08201909252600060808201818152919291610b40918791859085905b6111bb85858585611257565b6001600160a01b03841615610b4057825133906001036111f457602084810151908401516111ed838989858589611263565b50506107ba565b6107ba818787878787611387565b600354600160a01b900460ff1661090d57604051638dfc202b60e01b815260040160405180910390fd5b600354600160a01b900460ff161561090d5760405163d93c066560e01b815260040160405180910390fd5b61086c84848484611470565b6001600160a01b0384163b156107ba5760405163f23a6e6160e01b81526001600160a01b0385169063f23a6e61906112a79089908990889088908890600401612186565b6020604051808303816000875af19250505080156112e2575060408051601f3d908101601f191682019092526112df918101906121cb565b60015b61134b573d808015611310576040519150601f19603f3d011682016040523d82523d6000602084013e611315565b606091505b50805160000361134357604051632bfa23e760e11b81526001600160a01b03861660048201526024016107a4565b805181602001fd5b6001600160e01b0319811663f23a6e6160e01b1461114257604051632bfa23e760e11b81526001600160a01b03861660048201526024016107a4565b6001600160a01b0384163b156107ba5760405163bc197c8160e01b81526001600160a01b0385169063bc197c81906113cb90899089908890889088906004016121e8565b6020604051808303816000875af1925050508015611406575060408051601f3d908101601f19168201909252611403918101906121cb565b60015b611434573d808015611310576040519150601f19603f3d011682016040523d82523d6000602084013e611315565b6001600160e01b0319811663bc197c8160e01b1461114257604051632bfa23e760e11b81526001600160a01b03861660048201526024016107a4565b61147c848484846115ca565b6001600160a01b03841661152f576000805b83518110156115155760008382815181106114ab576114ab61203c565b6020026020010151905080600460008785815181106114cc576114cc61203c565b6020026020010151815260200190815260200160002060008282546114f19190612246565b9091555061150190508184612246565b9250508061150e90612068565b905061148e565b5080600560008282546115289190612246565b9091555050505b6001600160a01b03831661086c576000805b83518110156115b957600083828151811061155e5761155e61203c565b60200260200101519050806004600087858151811061157f5761157f61203c565b6020026020010151815260200190815260200160002060008282540392505081905550808301925050806115b290612068565b9050611541565b506005805491909103905550505050565b6115d261122c565b61086c8484848480518251146116085781518151604051635b05999160e01b8152600481019290925260248201526044016107a4565b3360005b8351811015611717576020818102858101820151908501909101516001600160a01b038816156116bf576000828152602081815260408083206001600160a01b038c16845290915290205481811015611698576040516303dee4c560e01b81526001600160a01b038a1660048201526024810182905260448101839052606481018490526084016107a4565b6000838152602081815260408083206001600160a01b038d16845290915290209082900390555b6001600160a01b03871615611704576000828152602081815260408083206001600160a01b038b168452909152812080548392906116fe908490612246565b90915550505b50508061171090612068565b905061160c565b5082516001036117985760208301516000906020840151909150856001600160a01b0316876001600160a01b0316846001600160a01b03167fc3d58168c5ae7397731d063d5bbf3d657854427343f4c083240f7aacaa2d0f628585604051611789929190918252602082015260400190565b60405180910390a45050610b40565b836001600160a01b0316856001600160a01b0316826001600160a01b03167f4a39dc06d4c0dbc64b70af90fd698a233a518aa5d07e595d983b8c0526c8f7fb86866040516117e7929190612259565b60405180910390a45050505050565b80356001600160a01b038116811461180d57600080fd5b919050565b6000806040838503121561182557600080fd5b61182e836117f6565b946020939093013593505050565b6001600160e01b03198116811461062357600080fd5b60006020828403121561186457600080fd5b813561186f8161183c565b9392505050565b634e487b7160e01b600052604160045260246000fd5b604051601f8201601f191681016001600160401b03811182821017156118b4576118b4611876565b604052919050565b600082601f8301126118cd57600080fd5b81356001600160401b038111156118e6576118e6611876565b6118f9601f8201601f191660200161188c565b81815284602083860101111561190e57600080fd5b816020850160208301376000918101602001919091529392505050565b60006020828403121561193d57600080fd5b81356001600160401b0381111561195357600080fd5b61195f848285016118bc565b949350505050565b6000815180845260005b8181101561198d57602081850181015186830182015201611971565b506000602082860101526020601f19601f83011685010191505092915050565b60208152600061186f6020830184611967565b6000602082840312156119d257600080fd5b5035919050565b60006001600160401b038211156119f2576119f2611876565b5060051b60200190565b600082601f830112611a0d57600080fd5b81356020611a22611a1d836119d9565b61188c565b82815260059290921b84018101918181019086841115611a4157600080fd5b8286015b84811015611a5c5780358352918301918301611a45565b509695505050505050565b600080600080600060a08688031215611a7f57600080fd5b611a88866117f6565b9450611a96602087016117f6565b935060408601356001600160401b0380821115611ab257600080fd5b611abe89838a016119fc565b94506060880135915080821115611ad457600080fd5b611ae089838a016119fc565b93506080880135915080821115611af657600080fd5b50611b03888289016118bc565b9150509295509295909350565b60008060008060808587031215611b2657600080fd5b843593506020850135925060408501356001600160401b0380821115611b4b57600080fd5b611b57888389016118bc565b93506060870135915080821115611b6d57600080fd5b50611b7a878288016118bc565b91505092959194509250565b60008060408385031215611b9957600080fd5b82356001600160401b0380821115611bb057600080fd5b818501915085601f830112611bc457600080fd5b81356020611bd4611a1d836119d9565b82815260059290921b84018101918181019089841115611bf357600080fd5b948201945b83861015611c1857611c09866117f6565b82529482019490820190611bf8565b96505086013592505080821115611c2e57600080fd5b50611c3b858286016119fc565b9150509250929050565b600081518084526020808501945080840160005b83811015611c7557815187529582019590820190600101611c59565b509495945050505050565b60208152600061186f6020830184611c45565b600080600060608486031215611ca857600080fd5b611cb1846117f6565b925060208401356001600160401b0380821115611ccd57600080fd5b611cd9878388016119fc565b93506040860135915080821115611cef57600080fd5b50611cfc868287016119fc565b9150509250925092565b60008060408385031215611d1957600080fd5b611d22836117f6565b915060208301358015158114611d3757600080fd5b809150509250929050565b600080600080600060a08688031215611d5a57600080fd5b611d63866117f6565b9450602086013593506040860135925060608601356001600160401b0380821115611d8d57600080fd5b611ae089838a016118bc565b600080600080600060a08688031215611db157600080fd5b611dba866117f6565b94506020808701356001600160401b0380821115611dd757600080fd5b611de38a838b016119fc565b96506040890135915080821115611df957600080fd5b611e058a838b016119fc565b95506060890135915080821115611e1b57600080fd5b818901915089601f830112611e2f57600080fd5b8135611e3d611a1d826119d9565b81815260059190911b8301840190848101908c831115611e5c57600080fd5b8585015b83811015611e9457803585811115611e785760008081fd5b611e868f89838a01016118bc565b845250918601918601611e60565b50965050506080890135925080831115611ead57600080fd5b5050611b03888289016118bc565b60008060408385031215611ece57600080fd5b611ed7836117f6565b9150611ee5602084016117f6565b90509250929050565b600080600080600060a08688031215611f0657600080fd5b611f0f866117f6565b9450611f1d602087016117f6565b9350604086013592506060860135915060808601356001600160401b03811115611f4657600080fd5b611b03888289016118bc565b600060208284031215611f6457600080fd5b61186f826117f6565b600080600060608486031215611f8257600080fd5b611f8b846117f6565b95602085013595506040909401359392505050565b600181811c90821680611fb457607f821691505b602082108103611fd457634e487b7160e01b600052602260045260246000fd5b50919050565b6020808252601b908201527f4d696e74696e6720686173206e6f742073746172746564207965740000000000604082015260600190565b602080825260119082015270135a5b9d1a5b99c81a185cc8195b991959607a1b604082015260600190565b634e487b7160e01b600052603260045260246000fd5b634e487b7160e01b600052601160045260246000fd5b60006001820161207a5761207a612052565b5060010190565b601f821115610a4257600081815260208120601f850160051c810160208610156120a85750805b601f850160051c820191505b818110156107ba578281556001016120b4565b81516001600160401b038111156120e0576120e0611876565b6120f4816120ee8454611fa0565b84612081565b602080601f83116001811461212957600084156121115750858301515b600019600386901b1c1916600185901b1785556107ba565b600085815260208120601f198616915b8281101561215857888601518255948401946001909101908401612139565b50858210156121765787850151600019600388901b60f8161c191681555b5050505050600190811b01905550565b6001600160a01b03868116825285166020820152604081018490526060810183905260a0608082018190526000906121c090830184611967565b979650505050505050565b6000602082840312156121dd57600080fd5b815161186f8161183c565b6001600160a01b0386811682528516602082015260a06040820181905260009061221490830186611c45565b82810360608401526122268186611c45565b9050828103608084015261223a8185611967565b98975050505050505050565b808201808211156105bc576105bc612052565b60408152600061226c6040830185611c45565b828103602084015261227e8185611c45565b9594505050505056fea2646970667358221220168a25dc9cd15942ab233aa9dee9525779e72fb635f82deb1959df46699c677364736f6c63430008140033",
  "linkReferences": {},
  "deployedLinkReferences": {}
}