{
  "_format": "hh-sol-artifact-1",
  "contractName": "ChefDropToken",
  "sourceName": "contracts/CFTDrop.sol",
  "abi": [
    {
      "inputs": [
        {
          "components": [
            {
              "internalType": "string",
              "name": "name",
              "type": "string"
            },
            {
              "internalType": "string",
              "name": "symbol",
              "type": "string"
            },
            {
              "internalType": "string",
              "name": "nftType",
              "type": "string"
            },
            {
              "internalType": "string",
              "name": "logoImage",
              "type": "string"
            },
            {
              "internalType": "string",
              "name": "newUri",
              "type": "string"
            },
            {
              "internalType": "address",
              "name": "initialOwner",
              "type": "address"
            },
            {
              "internalType": "uint256",
              "name": "startingDate",
              "type": "uint256"
            },
            {
              "internalType": "uint256",
              "name": "endDate",
              "type": "uint256"
            }
          ],
          "internalType": "struct ChefDropToken.Collection",
          "name": "params",
          "type": "tuple"
        }
      ],
      "stateMutability": "nonpayable",
      "type": "constructor"
    },
    {
      "inputs": [
        {
          "internalType": "address",
          "name": "sender",
          "type": "address"
        },
        {
          "internalType": "uint256",
          "name": "balance",
          "type": "uint256"
        },
        {
          "internalType": "uint256",
          "name": "needed",
          "type": "uint256"
        },
        {
          "internalType": "uint256",
          "name": "tokenId",
          "type": "uint256"
        }
      ],
      "name": "ERC1155InsufficientBalance",
      "type": "error"
    },
    {
      "inputs": [
        {
          "internalType": "address",
          "name": "approver",
          "type": "address"
        }
      ],
      "name": "ERC1155InvalidApprover",
      "type": "error"
    },
    {
      "inputs": [
        {
          "internalType": "uint256",
          "name": "idsLength",
          "type": "uint256"
        },
        {
          "internalType": "uint256",
          "name": "valuesLength",
          "type": "uint256"
        }
      ],
      "name": "ERC1155InvalidArrayLength",
      "type": "error"
    },
    {
      "inputs": [
        {
          "internalType": "address",
          "name": "operator",
          "type": "address"
        }
      ],
      "name": "ERC1155InvalidOperator",
      "type": "error"
    },
    {
      "inputs": [
        {
          "internalType": "address",
          "name": "receiver",
          "type": "address"
        }
      ],
      "name": "ERC1155InvalidReceiver",
      "type": "error"
    },
    {
      "inputs": [
        {
          "internalType": "address",
          "name": "sender",
          "type": "address"
        }
      ],
      "name": "ERC1155InvalidSender",
      "type": "error"
    },
    {
      "inputs": [
        {
          "internalType": "address",
          "name": "operator",
          "type": "address"
        },
        {
          "internalType": "address",
          "name": "owner",
          "type": "address"
        }
      ],
      "name": "ERC1155MissingApprovalForAll",
      "type": "error"
    },
    {
      "inputs": [],
      "name": "EnforcedPause",
      "type": "error"
    },
    {
      "inputs": [],
      "name": "ExpectedPause",
      "type": "error"
    },
    {
      "inputs": [
        {
          "internalType": "address",
          "name": "owner",
          "type": "address"
        }
      ],
      "name": "OwnableInvalidOwner",
      "type": "error"
    },
    {
      "inputs": [
        {
          "internalType": "address",
          "name": "account",
          "type": "address"
        }
      ],
      "name": "OwnableUnauthorizedAccount",
      "type": "error"
    },
    {
      "anonymous": false,
      "inputs": [
        {
          "indexed": true,
          "internalType": "address",
          "name": "account",
          "type": "address"
        },
        {
          "indexed": true,
          "internalType": "address",
          "name": "operator",
          "type": "address"
        },
        {
          "indexed": false,
          "internalType": "bool",
          "name": "approved",
          "type": "bool"
        }
      ],
      "name": "ApprovalForAll",
      "type": "event"
    },
    {
      "anonymous": false,
      "inputs": [
        {
          "indexed": true,
          "internalType": "address",
          "name": "previousOwner",
          "type": "address"
        },
        {
          "indexed": true,
          "internalType": "address",
          "name": "newOwner",
          "type": "address"
        }
      ],
      "name": "OwnershipTransferred",
      "type": "event"
    },
    {
      "anonymous": false,
      "inputs": [
        {
          "indexed": false,
          "internalType": "address",
          "name": "account",
          "type": "address"
        }
      ],
      "name": "Paused",
      "type": "event"
    },
    {
      "anonymous": false,
      "inputs": [
        {
          "indexed": true,
          "internalType": "address",
          "name": "operator",
          "type": "address"
        },
        {
          "indexed": true,
          "internalType": "address",
          "name": "from",
          "type": "address"
        },
        {
          "indexed": true,
          "internalType": "address",
          "name": "to",
          "type": "address"
        },
        {
          "indexed": false,
          "internalType": "uint256[]",
          "name": "ids",
          "type": "uint256[]"
        },
        {
          "indexed": false,
          "internalType": "uint256[]",
          "name": "values",
          "type": "uint256[]"
        }
      ],
      "name": "TransferBatch",
      "type": "event"
    },
    {
      "anonymous": false,
      "inputs": [
        {
          "indexed": true,
          "internalType": "address",
          "name": "operator",
          "type": "address"
        },
        {
          "indexed": true,
          "internalType": "address",
          "name": "from",
          "type": "address"
        },
        {
          "indexed": true,
          "internalType": "address",
          "name": "to",
          "type": "address"
        },
        {
          "indexed": false,
          "internalType": "uint256",
          "name": "id",
          "type": "uint256"
        },
        {
          "indexed": false,
          "internalType": "uint256",
          "name": "value",
          "type": "uint256"
        }
      ],
      "name": "TransferSingle",
      "type": "event"
    },
    {
      "anonymous": false,
      "inputs": [
        {
          "indexed": false,
          "internalType": "string",
          "name": "value",
          "type": "string"
        },
        {
          "indexed": true,
          "internalType": "uint256",
          "name": "id",
          "type": "uint256"
        }
      ],
      "name": "URI",
      "type": "event"
    },
    {
      "anonymous": false,
      "inputs": [
        {
          "indexed": false,
          "internalType": "address",
          "name": "account",
          "type": "address"
        }
      ],
      "name": "Unpaused",
      "type": "event"
    },
    {
      "inputs": [
        {
          "internalType": "address",
          "name": "marketplaceAddress",
          "type": "address"
        },
        {
          "internalType": "bool",
          "name": "approved",
          "type": "bool"
        }
      ],
      "name": "approveMarketplace",
      "outputs": [],
      "stateMutability": "nonpayable",
      "type": "function"
    },
    {
      "inputs": [
        {
          "internalType": "address",
          "name": "account",
          "type": "address"
        },
        {
          "internalType": "uint256",
          "name": "id",
          "type": "uint256"
        }
      ],
      "name": "balanceOf",
      "outputs": [
        {
          "internalType": "uint256",
          "name": "",
          "type": "uint256"
        }
      ],
      "stateMutability": "view",
      "type": "function"
    },
    {
      "inputs": [
        {
          "internalType": "address[]",
          "name": "accounts",
          "type": "address[]"
        },
        {
          "internalType": "uint256[]",
          "name": "ids",
          "type": "uint256[]"
        }
      ],
      "name": "balanceOfBatch",
      "outputs": [
        {
          "internalType": "uint256[]",
          "name": "",
          "type": "uint256[]"
        }
      ],
      "stateMutability": "view",
      "type": "function"
    },
    {
      "inputs": [
        {
          "internalType": "address",
          "name": "account",
          "type": "address"
        },
        {
          "internalType": "uint256",
          "name": "id",
          "type": "uint256"
        },
        {
          "internalType": "uint256",
          "name": "value",
          "type": "uint256"
        }
      ],
      "name": "burn",
      "outputs": [],
      "stateMutability": "nonpayable",
      "type": "function"
    },
    {
      "inputs": [
        {
          "internalType": "address",
          "name": "account",
          "type": "address"
        },
        {
          "internalType": "uint256[]",
          "name": "ids",
          "type": "uint256[]"
        },
        {
          "internalType": "uint256[]",
          "name": "values",
          "type": "uint256[]"
        }
      ],
      "name": "burnBatch",
      "outputs": [],
      "stateMutability": "nonpayable",
      "type": "function"
    },
    {
      "inputs": [],
      "name": "endDate",
      "outputs": [
        {
          "internalType": "uint256",
          "name": "",
          "type": "uint256"
        }
      ],
      "stateMutability": "view",
      "type": "function"
    },
    {
      "inputs": [
        {
          "internalType": "uint256",
          "name": "id",
          "type": "uint256"
        }
      ],
      "name": "exists",
      "outputs": [
        {
          "internalType": "bool",
          "name": "",
          "type": "bool"
        }
      ],
      "stateMutability": "view",
      "type": "function"
    },
    {
      "inputs": [],
      "name": "getAllTokenURIs",
      "outputs": [
        {
          "internalType": "uint256[]",
          "name": "",
          "type": "uint256[]"
        },
        {
          "internalType": "string[]",
          "name": "",
          "type": "string[]"
        }
      ],
      "stateMutability": "view",
      "type": "function"
    },
    {
      "inputs": [
        {
          "internalType": "address",
          "name": "account",
          "type": "address"
        },
        {
          "internalType": "address",
          "name": "operator",
          "type": "address"
        }
      ],
      "name": "isApprovedForAll",
      "outputs": [
        {
          "internalType": "bool",
          "name": "",
          "type": "bool"
        }
      ],
      "stateMutability": "view",
      "type": "function"
    },
    {
      "inputs": [],
      "name": "logoImage",
      "outputs": [
        {
          "internalType": "string",
          "name": "",
          "type": "string"
        }
      ],
      "stateMutability": "view",
      "type": "function"
    },
    {
      "inputs": [
        {
          "internalType": "address",
          "name": "account",
          "type": "address"
        },
        {
          "internalType": "uint256",
          "name": "amount",
          "type": "uint256"
        },
        {
          "internalType": "string",
          "name": "tokenURI",
          "type": "string"
        },
        {
          "internalType": "bytes",
          "name": "data",
          "type": "bytes"
        }
      ],
      "name": "mint",
      "outputs": [],
      "stateMutability": "nonpayable",
      "type": "function"
    },
    {
      "inputs": [
        {
          "internalType": "address",
          "name": "to",
          "type": "address"
        },
        {
          "internalType": "uint256[]",
          "name": "ids",
          "type": "uint256[]"
        },
        {
          "internalType": "uint256[]",
          "name": "amounts",
          "type": "uint256[]"
        },
        {
          "internalType": "string[]",
          "name": "tokenURIs",
          "type": "string[]"
        },
        {
          "internalType": "bytes",
          "name": "data",
          "type": "bytes"
        }
      ],
      "name": "mintBatch",
      "outputs": [],
      "stateMutability": "nonpayable",
      "type": "function"
    },
    {
      "inputs": [],
      "name": "name",
      "outputs": [
        {
          "internalType": "string",
          "name": "",
          "type": "string"
        }
      ],
      "stateMutability": "view",
      "type": "function"
    },
    {
      "inputs": [],
      "name": "nftType",
      "outputs": [
        {
          "internalType": "string",
          "name": "",
          "type": "string"
        }
      ],
      "stateMutability": "view",
      "type": "function"
    },
    {
      "inputs": [],
      "name": "owner",
      "outputs": [
        {
          "internalType": "address",
          "name": "",
          "type": "address"
        }
      ],
      "stateMutability": "view",
      "type": "function"
    },
    {
      "inputs": [],
      "name": "pause",
      "outputs": [],
      "stateMutability": "nonpayable",
      "type": "function"
    },
    {
      "inputs": [],
      "name": "paused",
      "outputs": [
        {
          "internalType": "bool",
          "name": "",
          "type": "bool"
        }
      ],
      "stateMutability": "view",
      "type": "function"
    },
    {
      "inputs": [
        {
          "internalType": "address",
          "name": "to",
          "type": "address"
        },
        {
          "internalType": "uint256",
          "name": "amount",
          "type": "uint256"
        },
        {
          "internalType": "string",
          "name": "tokenURI",
          "type": "string"
        },
        {
          "internalType": "bytes",
          "name": "data",
          "type": "bytes"
        }
      ],
      "name": "publicMint",
      "outputs": [],
      "stateMutability": "payable",
      "type": "function"
    },
    {
      "inputs": [],
      "name": "renounceOwnership",
      "outputs": [],
      "stateMutability": "nonpayable",
      "type": "function"
    },
    {
      "inputs": [
        {
          "internalType": "address",
          "name": "from",
          "type": "address"
        },
        {
          "internalType": "address",
          "name": "to",
          "type": "address"
        },
        {
          "internalType": "uint256[]",
          "name": "ids",
          "type": "uint256[]"
        },
        {
          "internalType": "uint256[]",
          "name": "values",
          "type": "uint256[]"
        },
        {
          "internalType": "bytes",
          "name": "data",
          "type": "bytes"
        }
      ],
      "name": "safeBatchTransferFrom",
      "outputs": [],
      "stateMutability": "nonpayable",
      "type": "function"
    },
    {
      "inputs": [
        {
          "internalType": "address",
          "name": "from",
          "type": "address"
        },
        {
          "internalType": "address",
          "name": "to",
          "type": "address"
        },
        {
          "internalType": "uint256",
          "name": "id",
          "type": "uint256"
        },
        {
          "internalType": "uint256",
          "name": "value",
          "type": "uint256"
        },
        {
          "internalType": "bytes",
          "name": "data",
          "type": "bytes"
        }
      ],
      "name": "safeTransferFrom",
      "outputs": [],
      "stateMutability": "nonpayable",
      "type": "function"
    },
    {
      "inputs": [
        {
          "internalType": "address",
          "name": "operator",
          "type": "address"
        },
        {
          "internalType": "bool",
          "name": "approved",
          "type": "bool"
        }
      ],
      "name": "setApprovalForAll",
      "outputs": [],
      "stateMutability": "nonpayable",
      "type": "function"
    },
    {
      "inputs": [
        {
          "internalType": "string",
          "name": "newuri",
          "type": "string"
        }
      ],
      "name": "setURI",
      "outputs": [],
      "stateMutability": "nonpayable",
      "type": "function"
    },
    {
      "inputs": [],
      "name": "startingDate",
      "outputs": [
        {
          "internalType": "uint256",
          "name": "",
          "type": "uint256"
        }
      ],
      "stateMutability": "view",
      "type": "function"
    },
    {
      "inputs": [
        {
          "internalType": "bytes4",
          "name": "interfaceId",
          "type": "bytes4"
        }
      ],
      "name": "supportsInterface",
      "outputs": [
        {
          "internalType": "bool",
          "name": "",
          "type": "bool"
        }
      ],
      "stateMutability": "view",
      "type": "function"
    },
    {
      "inputs": [],
      "name": "symbol",
      "outputs": [
        {
          "internalType": "string",
          "name": "",
          "type": "string"
        }
      ],
      "stateMutability": "view",
      "type": "function"
    },
    {
      "inputs": [],
      "name": "totalSupply",
      "outputs": [
        {
          "internalType": "uint256",
          "name": "",
          "type": "uint256"
        }
      ],
      "stateMutability": "view",
      "type": "function"
    },
    {
      "inputs": [
        {
          "internalType": "uint256",
          "name": "id",
          "type": "uint256"
        }
      ],
      "name": "totalSupply",
      "outputs": [
        {
          "internalType": "uint256",
          "name": "",
          "type": "uint256"
        }
      ],
      "stateMutability": "view",
      "type": "function"
    },
    {
      "inputs": [
        {
          "internalType": "address",
          "name": "newOwner",
          "type": "address"
        }
      ],
      "name": "transferOwnership",
      "outputs": [],
      "stateMutability": "nonpayable",
      "type": "function"
    },
    {
      "inputs": [],
      "name": "unpause",
      "outputs": [],
      "stateMutability": "nonpayable",
      "type": "function"
    },
    {
      "inputs": [
        {
          "internalType": "uint256",
          "name": "tokenId",
          "type": "uint256"
        }
      ],
      "name": "uri",
      "outputs": [
        {
          "internalType": "string",
          "name": "",
          "type": "string"
        }
      ],
      "stateMutability": "view",
      "type": "function"
    },
    {
      "inputs": [],
      "name": "withdraw",
      "outputs": [],
      "stateMutability": "nonpayable",
      "type": "function"
    }
  ],
  "bytecode": "0x60806040523480156200001157600080fd5b5060405162002a1638038062002a1683398101604081905262000034916200028d565b60a0810151608082015162000049816200010a565b506001600160a01b0381166200007957604051631e4fbdf760e01b81526000600482015260240160405180910390fd5b62000084816200011c565b506003805460ff60a01b191690556080810151620000a2906200010a565b8051600690620000b3908262000457565b506020810151600790620000c8908262000457565b506060810151600890620000dd908262000457565b5060c081015160095560e0810151600a556040810151600b9062000102908262000457565b505062000523565b600262000118828262000457565b5050565b600380546001600160a01b038381166001600160a01b0319831681179093556040519116919082907f8be0079c531659141344cd1fd0a4f28419497f9722a3daafe3b4186f6b6457e090600090a35050565b634e487b7160e01b600052604160045260246000fd5b60405161010081016001600160401b0381118282101715620001aa57620001aa6200016e565b60405290565b604051601f8201601f191681016001600160401b0381118282101715620001db57620001db6200016e565b604052919050565b600082601f830112620001f557600080fd5b81516001600160401b038111156200021157620002116200016e565b602062000227601f8301601f19168201620001b0565b82815285828487010111156200023c57600080fd5b60005b838110156200025c5785810183015182820184015282016200023f565b506000928101909101919091529392505050565b80516001600160a01b03811681146200028857600080fd5b919050565b600060208284031215620002a057600080fd5b81516001600160401b0380821115620002b857600080fd5b908301906101008286031215620002ce57600080fd5b620002d862000184565b825182811115620002e857600080fd5b620002f687828601620001e3565b8252506020830151828111156200030c57600080fd5b6200031a87828601620001e3565b6020830152506040830151828111156200033357600080fd5b6200034187828601620001e3565b6040830152506060830151828111156200035a57600080fd5b6200036887828601620001e3565b6060830152506080830151828111156200038157600080fd5b6200038f87828601620001e3565b608083015250620003a360a0840162000270565b60a082015260c083015160c082015260e083015160e082015280935050505092915050565b600181811c90821680620003dd57607f821691505b602082108103620003fe57634e487b7160e01b600052602260045260246000fd5b50919050565b601f8211156200045257600081815260208120601f850160051c810160208610156200042d5750805b601f850160051c820191505b818110156200044e5782815560010162000439565b5050505b505050565b81516001600160401b038111156200047357620004736200016e565b6200048b81620004848454620003c8565b8462000404565b602080601f831160018114620004c35760008415620004aa5750858301515b600019600386901b1c1916600185901b1785556200044e565b600085815260208120601f198616915b82811015620004f457888601518255948401946001909101908401620004d3565b5085821015620005135787850151600019600388901b60f8161c191681555b5050505050600190811b01905550565b6124e380620005336000396000f3fe6080604052600436106101e25760003560e01c80638456cb5911610102578063c0bd19f311610095578063f242432a11610064578063f242432a14610553578063f2fde38b14610573578063f5298aca14610593578063fb8877c5146105b357600080fd5b8063c0bd19f3146104ea578063c24a0f8b146104fd578063d2b04fd614610513578063e985e9c51461053357600080fd5b8063a22cb465116100d1578063a22cb4651461045d578063b9571e841461047d578063bb4dc10a1461049d578063bd85b039146104bd57600080fd5b80638456cb59146103e857806389fde7af146103fd5780638da5cb5b1461042057806395d89b411461044857600080fd5b80633e3ff7b61161017a5780635c975abb116101495780635c975abb1461037f5780636b20c4541461039e5780636fac889b146103be578063715018a6146103d357600080fd5b80633e3ff7b6146102f85780633f4ba83a1461030e5780634e1273f4146103235780634f558e791461035057600080fd5b80630e89341c116101b65780630e89341c1461028e57806318160ddd146102ae5780632eb2c2d6146102c35780633ccfd60b146102e357600080fd5b8062fdd58e146101e757806301ffc9a71461021a57806302fe53051461024a57806306fdde031461026c575b600080fd5b3480156101f357600080fd5b50610207610202366004611a78565b6105c8565b6040519081526020015b60405180910390f35b34801561022657600080fd5b5061023a610235366004611ab8565b6105f0565b6040519015158152602001610211565b34801561025657600080fd5b5061026a610265366004611b91565b610640565b005b34801561027857600080fd5b50610281610654565b6040516102119190611c13565b34801561029a57600080fd5b506102816102a9366004611c26565b6106e2565b3480156102ba57600080fd5b50600554610207565b3480156102cf57600080fd5b5061026a6102de366004611ccd565b610784565b3480156102ef57600080fd5b5061026a6107f0565b34801561030457600080fd5b5061020760095481565b34801561031a57600080fd5b5061026a61087b565b34801561032f57600080fd5b5061034361033e366004611d76565b61088d565b6040516102119190611e70565b34801561035c57600080fd5b5061023a61036b366004611c26565b600090815260046020526040902054151590565b34801561038b57600080fd5b50600354600160a01b900460ff1661023a565b3480156103aa57600080fd5b5061026a6103b9366004611e83565b610961565b3480156103ca57600080fd5b506102816109c5565b3480156103df57600080fd5b5061026a6109d2565b3480156103f457600080fd5b5061026a6109e4565b34801561040957600080fd5b506104126109f4565b604051610211929190611ef6565b34801561042c57600080fd5b506003546040516001600160a01b039091168152602001610211565b34801561045457600080fd5b50610281610ba0565b34801561046957600080fd5b5061026a610478366004611f68565b610bad565b34801561048957600080fd5b5061026a610498366004611fa4565b610bb8565b3480156104a957600080fd5b5061026a6104b8366004611f68565b610db8565b3480156104c957600080fd5b506102076104d8366004611c26565b60009081526004602052604090205490565b61026a6104f83660046120c6565b610dc2565b34801561050957600080fd5b50610207600a5481565b34801561051f57600080fd5b5061026a61052e3660046120c6565b610ed3565b34801561053f57600080fd5b5061023a61054e366004612143565b610edb565b34801561055f57600080fd5b5061026a61056e366004612176565b610f09565b34801561057f57600080fd5b5061026a61058e3660046121da565b610f68565b34801561059f57600080fd5b5061026a6105ae3660046121f5565b610fa3565b3480156105bf57600080fd5b50610281610fd9565b6000818152602081815260408083206001600160a01b03861684529091529020545b92915050565b60006001600160e01b03198216636cdb3d1360e11b148061062157506001600160e01b031982166303a24d0760e21b145b806105ea57506301ffc9a760e01b6001600160e01b03198316146105ea565b610648610fe6565b61065181611013565b50565b6006805461066190612228565b80601f016020809104026020016040519081016040528092919081815260200182805461068d90612228565b80156106da5780601f106106af576101008083540402835291602001916106da565b820191906000526020600020905b8154815290600101906020018083116106bd57829003601f168201915b505050505081565b6000818152600c602052604090208054606091906106ff90612228565b80601f016020809104026020016040519081016040528092919081815260200182805461072b90612228565b80156107785780601f1061074d57610100808354040283529160200191610778565b820191906000526020600020905b81548152906001019060200180831161075b57829003601f168201915b50505050509050919050565b336001600160a01b03861681148015906107a557506107a38682610edb565b155b156107db5760405163711bec9160e11b81526001600160a01b038083166004830152871660248201526044015b60405180910390fd5b6107e8868686868661101f565b505050505050565b6107f8610fe6565b478061083d5760405162461bcd60e51b81526020600482015260146024820152734e6f2066756e647320746f20776974686472617760601b60448201526064016107d2565b6003546040516001600160a01b039091169082156108fc029083906000818181858888f19350505050158015610877573d6000803e3d6000fd5b5050565b610883610fe6565b61088b61107f565b565b606081518351146108be5781518351604051635b05999160e01b8152600481019290925260248201526044016107d2565b600083516001600160401b038111156108d9576108d9611adc565b604051908082528060200260200182016040528015610902578160200160208202803683370190505b50905060005b84518110156109595760208082028601015161092c906020808402870101516105c8565b82828151811061093e5761093e612262565b60209081029190910101526109528161228e565b9050610908565b509392505050565b6001600160a01b0383163314801590610981575061097f8333610edb565b155b156109b557335b60405163711bec9160e11b81526001600160a01b03918216600482015290841660248201526044016107d2565b6109c08383836110d4565b505050565b600b805461066190612228565b6109da610fe6565b61088b600061111a565b6109ec610fe6565b61088b61116c565b600e5460609081906000816001600160401b03811115610a1657610a16611adc565b604051908082528060200260200182016040528015610a4957816020015b6060815260200190600190039081610a345790505b50905060005b82811015610b4057600c6000600e8381548110610a6e57610a6e612262565b906000526020600020015481526020019081526020016000208054610a9290612228565b80601f0160208091040260200160405190810160405280929190818152602001828054610abe90612228565b8015610b0b5780601f10610ae057610100808354040283529160200191610b0b565b820191906000526020600020905b815481529060010190602001808311610aee57829003601f168201915b5050505050828281518110610b2257610b22612262565b60200260200101819052508080610b389061228e565b915050610a4f565b50600e8181805480602002602001604051908101604052809291908181526020018280548015610b8f57602002820191906000526020600020905b815481526020019060010190808311610b7b575b505050505091509350935050509091565b6007805461066190612228565b6108773383836111af565b610bc0610fe6565b600954421015610c125760405162461bcd60e51b815260206004820152601b60248201527f4d696e74696e6720686173206e6f74207374617274656420796574000000000060448201526064016107d2565b600a54421115610c585760405162461bcd60e51b8152602060048201526011602482015270135a5b9d1a5b99c81a185cc8195b991959607a1b60448201526064016107d2565b82518451148015610c6a575081518451145b610caa5760405162461bcd60e51b81526020600482015260116024820152704d69736d6174636865642061727261797360781b60448201526064016107d2565b600083516001600160401b03811115610cc557610cc5611adc565b604051908082528060200260200182016040528015610cee578160200160208202803683370190505b50905060005b8451811015610daf57610d05611245565b828281518110610d1757610d17612262565b602002602001018181525050610d6187838381518110610d3957610d39612262565b6020026020010151878481518110610d5357610d53612262565b602002602001015186611260565b610d9d828281518110610d7657610d76612262565b6020026020010151858381518110610d9057610d90612262565b60200260200101516112bd565b80610da78161228e565b915050610cf4565b50505050505050565b6108778282610bad565b600954421015610e145760405162461bcd60e51b815260206004820152601b60248201527f4d696e74696e6720686173206e6f74207374617274656420796574000000000060448201526064016107d2565b600a54421115610e5a5760405162461bcd60e51b8152602060048201526011602482015270135a5b9d1a5b99c81a185cc8195b991959607a1b60448201526064016107d2565b60008311610eaa5760405162461bcd60e51b815260206004820181905260248201527f416d6f756e74206d7573742062652067726561746572207468616e207a65726f60448201526064016107d2565b6000610eb4611245565b9050610ec285828685611260565b610ecc81846112bd565b5050505050565b610dc2610fe6565b6001600160a01b03918216600090815260016020908152604080832093909416825291909152205460ff1690565b336001600160a01b0386168114801590610f2a5750610f288682610edb565b155b15610f5b5760405163711bec9160e11b81526001600160a01b038083166004830152871660248201526044016107d2565b6107e88686868686611326565b610f70610fe6565b6001600160a01b038116610f9a57604051631e4fbdf760e01b8152600060048201526024016107d2565b6106518161111a565b6001600160a01b0383163314801590610fc35750610fc18333610edb565b155b15610fce5733610988565b6109c08383836113ab565b6008805461066190612228565b6003546001600160a01b0316331461088b5760405163118cdaa760e01b81523360048201526024016107d2565b600261087782826122ed565b6001600160a01b03841661104957604051632bfa23e760e11b8152600060048201526024016107d2565b6001600160a01b03851661107257604051626a0d4560e21b8152600060048201526024016107d2565b610ecc858585858561140f565b611087611462565b6003805460ff60a01b191690557f5db9ee0a495bf2e6ff9c91a7834c1ba4fdd244a5e8aa4e537bd38aeae4b073aa335b6040516001600160a01b03909116815260200160405180910390a1565b6001600160a01b0383166110fd57604051626a0d4560e21b8152600060048201526024016107d2565b6109c083600084846040518060200160405280600081525061140f565b600380546001600160a01b038381166001600160a01b0319831681179093556040519116919082907f8be0079c531659141344cd1fd0a4f28419497f9722a3daafe3b4186f6b6457e090600090a35050565b61117461148c565b6003805460ff60a01b1916600160a01b1790557f62e78cea01bee320cd4e420270b5ea74000d11b0c9f74754ebdbfc544b05a2586110b73390565b6001600160a01b0382166111d85760405162ced3e160e81b8152600060048201526024016107d2565b6001600160a01b03838116600081815260016020908152604080832094871680845294825291829020805460ff191686151590811790915591519182527f17307eab39ab6107e8899845ad3d59bd9653f200f220920489ca2b5937696c31910160405180910390a3505050565b6000600d600081546112569061228e565b9182905550919050565b6001600160a01b03841661128a57604051632bfa23e760e11b8152600060048201526024016107d2565b604080516001808252602082018690528183019081526060820185905260808201909252906107e860008784848761140f565b600081511161130e5760405162461bcd60e51b815260206004820152601b60248201527f546f6b656e20555249206d757374206e6f7420626520656d707479000000000060448201526064016107d2565b6000828152600c602052604090206109c082826122ed565b6001600160a01b03841661135057604051632bfa23e760e11b8152600060048201526024016107d2565b6001600160a01b03851661137957604051626a0d4560e21b8152600060048201526024016107d2565b60408051600180825260208201869052818301908152606082018590526080820190925290610daf878784848761140f565b6001600160a01b0383166113d457604051626a0d4560e21b8152600060048201526024016107d2565b604080516001808252602082018590528183019081526060820184905260a08201909252600060808201818152919291610ecc918791859085905b61141b858585856114b7565b6001600160a01b03841615610ecc5782513390600103611454576020848101519084015161144d8389898585896114c9565b50506107e8565b6107e88187878787876115ed565b600354600160a01b900460ff1661088b57604051638dfc202b60e01b815260040160405180910390fd5b600354600160a01b900460ff161561088b5760405163d93c066560e01b815260040160405180910390fd5b6114c3848484846116d6565b50505050565b6001600160a01b0384163b156107e85760405163f23a6e6160e01b81526001600160a01b0385169063f23a6e619061150d90899089908890889088906004016123ac565b6020604051808303816000875af1925050508015611548575060408051601f3d908101601f19168201909252611545918101906123f1565b60015b6115b1573d808015611576576040519150601f19603f3d011682016040523d82523d6000602084013e61157b565b606091505b5080516000036115a957604051632bfa23e760e11b81526001600160a01b03861660048201526024016107d2565b805181602001fd5b6001600160e01b0319811663f23a6e6160e01b14610daf57604051632bfa23e760e11b81526001600160a01b03861660048201526024016107d2565b6001600160a01b0384163b156107e85760405163bc197c8160e01b81526001600160a01b0385169063bc197c8190611631908990899088908890889060040161240e565b6020604051808303816000875af192505050801561166c575060408051601f3d908101601f19168201909252611669918101906123f1565b60015b61169a573d808015611576576040519150601f19603f3d011682016040523d82523d6000602084013e61157b565b6001600160e01b0319811663bc197c8160e01b14610daf57604051632bfa23e760e11b81526001600160a01b03861660048201526024016107d2565b6116e284848484611830565b6001600160a01b038416611795576000805b835181101561177b57600083828151811061171157611711612262565b60200260200101519050806004600087858151811061173257611732612262565b602002602001015181526020019081526020016000206000828254611757919061246c565b909155506117679050818461246c565b925050806117749061228e565b90506116f4565b50806005600082825461178e919061246c565b9091555050505b6001600160a01b0383166114c3576000805b835181101561181f5760008382815181106117c4576117c4612262565b6020026020010151905080600460008785815181106117e5576117e5612262565b6020026020010151815260200190815260200160002060008282540392505081905550808301925050806118189061228e565b90506117a7565b506005805491909103905550505050565b61183861148c565b6114c384848484805182511461186e5781518151604051635b05999160e01b8152600481019290925260248201526044016107d2565b3360005b835181101561197d576020818102858101820151908501909101516001600160a01b03881615611925576000828152602081815260408083206001600160a01b038c168452909152902054818110156118fe576040516303dee4c560e01b81526001600160a01b038a1660048201526024810182905260448101839052606481018490526084016107d2565b6000838152602081815260408083206001600160a01b038d16845290915290209082900390555b6001600160a01b0387161561196a576000828152602081815260408083206001600160a01b038b1684529091528120805483929061196490849061246c565b90915550505b5050806119769061228e565b9050611872565b5082516001036119fe5760208301516000906020840151909150856001600160a01b0316876001600160a01b0316846001600160a01b03167fc3d58168c5ae7397731d063d5bbf3d657854427343f4c083240f7aacaa2d0f6285856040516119ef929190918252602082015260400190565b60405180910390a45050610ecc565b836001600160a01b0316856001600160a01b0316826001600160a01b03167f4a39dc06d4c0dbc64b70af90fd698a233a518aa5d07e595d983b8c0526c8f7fb8686604051611a4d92919061247f565b60405180910390a45050505050565b80356001600160a01b0381168114611a7357600080fd5b919050565b60008060408385031215611a8b57600080fd5b611a9483611a5c565b946020939093013593505050565b6001600160e01b03198116811461065157600080fd5b600060208284031215611aca57600080fd5b8135611ad581611aa2565b9392505050565b634e487b7160e01b600052604160045260246000fd5b604051601f8201601f191681016001600160401b0381118282101715611b1a57611b1a611adc565b604052919050565b600082601f830112611b3357600080fd5b81356001600160401b03811115611b4c57611b4c611adc565b611b5f601f8201601f1916602001611af2565b818152846020838601011115611b7457600080fd5b816020850160208301376000918101602001919091529392505050565b600060208284031215611ba357600080fd5b81356001600160401b03811115611bb957600080fd5b611bc584828501611b22565b949350505050565b6000815180845260005b81811015611bf357602081850181015186830182015201611bd7565b506000602082860101526020601f19601f83011685010191505092915050565b602081526000611ad56020830184611bcd565b600060208284031215611c3857600080fd5b5035919050565b60006001600160401b03821115611c5857611c58611adc565b5060051b60200190565b600082601f830112611c7357600080fd5b81356020611c88611c8383611c3f565b611af2565b82815260059290921b84018101918181019086841115611ca757600080fd5b8286015b84811015611cc25780358352918301918301611cab565b509695505050505050565b600080600080600060a08688031215611ce557600080fd5b611cee86611a5c565b9450611cfc60208701611a5c565b935060408601356001600160401b0380821115611d1857600080fd5b611d2489838a01611c62565b94506060880135915080821115611d3a57600080fd5b611d4689838a01611c62565b93506080880135915080821115611d5c57600080fd5b50611d6988828901611b22565b9150509295509295909350565b60008060408385031215611d8957600080fd5b82356001600160401b0380821115611da057600080fd5b818501915085601f830112611db457600080fd5b81356020611dc4611c8383611c3f565b82815260059290921b84018101918181019089841115611de357600080fd5b948201945b83861015611e0857611df986611a5c565b82529482019490820190611de8565b96505086013592505080821115611e1e57600080fd5b50611e2b85828601611c62565b9150509250929050565b600081518084526020808501945080840160005b83811015611e6557815187529582019590820190600101611e49565b509495945050505050565b602081526000611ad56020830184611e35565b600080600060608486031215611e9857600080fd5b611ea184611a5c565b925060208401356001600160401b0380821115611ebd57600080fd5b611ec987838801611c62565b93506040860135915080821115611edf57600080fd5b50611eec86828701611c62565b9150509250925092565b604081526000611f096040830185611e35565b6020838203818501528185518084528284019150828160051b85010183880160005b83811015611f5957601f19878403018552611f47838351611bcd565b94860194925090850190600101611f2b565b50909998505050505050505050565b60008060408385031215611f7b57600080fd5b611f8483611a5c565b915060208301358015158114611f9957600080fd5b809150509250929050565b600080600080600060a08688031215611fbc57600080fd5b611fc586611a5c565b94506020808701356001600160401b0380821115611fe257600080fd5b611fee8a838b01611c62565b9650604089013591508082111561200457600080fd5b6120108a838b01611c62565b9550606089013591508082111561202657600080fd5b818901915089601f83011261203a57600080fd5b8135612048611c8382611c3f565b81815260059190911b8301840190848101908c83111561206757600080fd5b8585015b8381101561209f578035858111156120835760008081fd5b6120918f89838a0101611b22565b84525091860191860161206b565b509650505060808901359250808311156120b857600080fd5b5050611d6988828901611b22565b600080600080608085870312156120dc57600080fd5b6120e585611a5c565b93506020850135925060408501356001600160401b038082111561210857600080fd5b61211488838901611b22565b9350606087013591508082111561212a57600080fd5b5061213787828801611b22565b91505092959194509250565b6000806040838503121561215657600080fd5b61215f83611a5c565b915061216d60208401611a5c565b90509250929050565b600080600080600060a0868803121561218e57600080fd5b61219786611a5c565b94506121a560208701611a5c565b9350604086013592506060860135915060808601356001600160401b038111156121ce57600080fd5b611d6988828901611b22565b6000602082840312156121ec57600080fd5b611ad582611a5c565b60008060006060848603121561220a57600080fd5b61221384611a5c565b95602085013595506040909401359392505050565b600181811c9082168061223c57607f821691505b60208210810361225c57634e487b7160e01b600052602260045260246000fd5b50919050565b634e487b7160e01b600052603260045260246000fd5b634e487b7160e01b600052601160045260246000fd5b6000600182016122a0576122a0612278565b5060010190565b601f8211156109c057600081815260208120601f850160051c810160208610156122ce5750805b601f850160051c820191505b818110156107e8578281556001016122da565b81516001600160401b0381111561230657612306611adc565b61231a816123148454612228565b846122a7565b602080601f83116001811461234f57600084156123375750858301515b600019600386901b1c1916600185901b1785556107e8565b600085815260208120601f198616915b8281101561237e5788860151825594840194600190910190840161235f565b508582101561239c5787850151600019600388901b60f8161c191681555b5050505050600190811b01905550565b6001600160a01b03868116825285166020820152604081018490526060810183905260a0608082018190526000906123e690830184611bcd565b979650505050505050565b60006020828403121561240357600080fd5b8151611ad581611aa2565b6001600160a01b0386811682528516602082015260a06040820181905260009061243a90830186611e35565b828103606084015261244c8186611e35565b905082810360808401526124608185611bcd565b98975050505050505050565b808201808211156105ea576105ea612278565b6040815260006124926040830185611e35565b82810360208401526124a48185611e35565b9594505050505056fea26469706673582212209cc04faab8be81a38c579925cdafda3eb7a9b635f1ca22d4b2786b8595d8421b64736f6c63430008140033",
  "linkReferences": {},
  "deployedLinkReferences": {}
}